{
  "_format": "hh-sol-artifact-1",
  "contractName": "HoodGap",
  "sourceName": "contracts/HoodGap.sol",
  "abi": [
    {
      "inputs": [
        {
          "internalType": "address",
          "name": "_usdc",
          "type": "address"
        },
        {
          "internalType": "address",
          "name": "_oracle",
          "type": "address"
        }
      ],
      "stateMutability": "nonpayable",
      "type": "constructor"
    },
    {
      "inputs": [
        {
          "internalType": "address",
          "name": "sender",
          "type": "address"
        },
        {
          "internalType": "uint256",
          "name": "tokenId",
          "type": "uint256"
        },
        {
          "internalType": "address",
          "name": "owner",
          "type": "address"
        }
      ],
      "name": "ERC721IncorrectOwner",
      "type": "error"
    },
    {
      "inputs": [
        {
          "internalType": "address",
          "name": "operator",
          "type": "address"
        },
        {
          "internalType": "uint256",
          "name": "tokenId",
          "type": "uint256"
        }
      ],
      "name": "ERC721InsufficientApproval",
      "type": "error"
    },
    {
      "inputs": [
        {
          "internalType": "address",
          "name": "approver",
          "type": "address"
        }
      ],
      "name": "ERC721InvalidApprover",
      "type": "error"
    },
    {
      "inputs": [
        {
          "internalType": "address",
          "name": "operator",
          "type": "address"
        }
      ],
      "name": "ERC721InvalidOperator",
      "type": "error"
    },
    {
      "inputs": [
        {
          "internalType": "address",
          "name": "owner",
          "type": "address"
        }
      ],
      "name": "ERC721InvalidOwner",
      "type": "error"
    },
    {
      "inputs": [
        {
          "internalType": "address",
          "name": "receiver",
          "type": "address"
        }
      ],
      "name": "ERC721InvalidReceiver",
      "type": "error"
    },
    {
      "inputs": [
        {
          "internalType": "address",
          "name": "sender",
          "type": "address"
        }
      ],
      "name": "ERC721InvalidSender",
      "type": "error"
    },
    {
      "inputs": [
        {
          "internalType": "uint256",
          "name": "tokenId",
          "type": "uint256"
        }
      ],
      "name": "ERC721NonexistentToken",
      "type": "error"
    },
    {
      "inputs": [
        {
          "internalType": "address",
          "name": "owner",
          "type": "address"
        }
      ],
      "name": "OwnableInvalidOwner",
      "type": "error"
    },
    {
      "inputs": [
        {
          "internalType": "address",
          "name": "account",
          "type": "address"
        }
      ],
      "name": "OwnableUnauthorizedAccount",
      "type": "error"
    },
    {
      "inputs": [],
      "name": "ReentrancyGuardReentrantCall",
      "type": "error"
    },
    {
      "anonymous": false,
      "inputs": [
        {
          "indexed": true,
          "internalType": "address",
          "name": "owner",
          "type": "address"
        },
        {
          "indexed": true,
          "internalType": "address",
          "name": "approved",
          "type": "address"
        },
        {
          "indexed": true,
          "internalType": "uint256",
          "name": "tokenId",
          "type": "uint256"
        }
      ],
      "name": "Approval",
      "type": "event"
    },
    {
      "anonymous": false,
      "inputs": [
        {
          "indexed": true,
          "internalType": "address",
          "name": "owner",
          "type": "address"
        },
        {
          "indexed": true,
          "internalType": "address",
          "name": "operator",
          "type": "address"
        },
        {
          "indexed": false,
          "internalType": "bool",
          "name": "approved",
          "type": "bool"
        }
      ],
      "name": "ApprovalForAll",
      "type": "event"
    },
    {
      "anonymous": false,
      "inputs": [
        {
          "indexed": true,
          "internalType": "address",
          "name": "usdc",
          "type": "address"
        },
        {
          "indexed": true,
          "internalType": "address",
          "name": "oracle",
          "type": "address"
        },
        {
          "indexed": true,
          "internalType": "address",
          "name": "guardian",
          "type": "address"
        }
      ],
      "name": "ContractInitialized",
      "type": "event"
    },
    {
      "anonymous": false,
      "inputs": [
        {
          "indexed": true,
          "internalType": "uint256",
          "name": "week",
          "type": "uint256"
        },
        {
          "indexed": false,
          "internalType": "string",
          "name": "reason",
          "type": "string"
        }
      ],
      "name": "FailsafeTriggered",
      "type": "event"
    },
    {
      "anonymous": false,
      "inputs": [
        {
          "indexed": true,
          "internalType": "uint256",
          "name": "subId",
          "type": "uint256"
        },
        {
          "indexed": true,
          "internalType": "uint256",
          "name": "policyId",
          "type": "uint256"
        },
        {
          "indexed": false,
          "internalType": "uint256",
          "name": "gapWeek",
          "type": "uint256"
        },
        {
          "indexed": false,
          "internalType": "uint256",
          "name": "gapDay",
          "type": "uint256"
        }
      ],
      "name": "GapPolicyMinted",
      "type": "event"
    },
    {
      "anonymous": false,
      "inputs": [
        {
          "indexed": true,
          "internalType": "address",
          "name": "previousOwner",
          "type": "address"
        },
        {
          "indexed": true,
          "internalType": "address",
          "name": "newOwner",
          "type": "address"
        }
      ],
      "name": "OwnershipTransferred",
      "type": "event"
    },
    {
      "anonymous": false,
      "inputs": [
        {
          "indexed": true,
          "internalType": "address",
          "name": "by",
          "type": "address"
        }
      ],
      "name": "Paused",
      "type": "event"
    },
    {
      "anonymous": false,
      "inputs": [
        {
          "indexed": true,
          "internalType": "uint256",
          "name": "policyId",
          "type": "uint256"
        },
        {
          "indexed": true,
          "internalType": "address",
          "name": "holder",
          "type": "address"
        },
        {
          "indexed": false,
          "internalType": "uint256",
          "name": "amount",
          "type": "uint256"
        },
        {
          "indexed": false,
          "internalType": "uint256",
          "name": "gap",
          "type": "uint256"
        }
      ],
      "name": "PolicyPaidOut",
      "type": "event"
    },
    {
      "anonymous": false,
      "inputs": [
        {
          "indexed": true,
          "internalType": "address",
          "name": "buyer",
          "type": "address"
        },
        {
          "indexed": true,
          "internalType": "uint256",
          "name": "policyId",
          "type": "uint256"
        },
        {
          "indexed": false,
          "internalType": "uint256",
          "name": "coverage",
          "type": "uint256"
        },
        {
          "indexed": false,
          "internalType": "uint256",
          "name": "threshold",
          "type": "uint256"
        },
        {
          "indexed": false,
          "internalType": "uint256",
          "name": "premium",
          "type": "uint256"
        },
        {
          "indexed": false,
          "internalType": "uint256",
          "name": "closePrice",
          "type": "uint256"
        },
        {
          "indexed": false,
          "internalType": "uint256",
          "name": "gapWeek",
          "type": "uint256"
        },
        {
          "indexed": false,
          "internalType": "uint256",
          "name": "gapDay",
          "type": "uint256"
        }
      ],
      "name": "PolicyPurchased",
      "type": "event"
    },
    {
      "anonymous": false,
      "inputs": [
        {
          "indexed": true,
          "internalType": "uint256",
          "name": "policyId",
          "type": "uint256"
        },
        {
          "indexed": false,
          "internalType": "uint256",
          "name": "openPrice",
          "type": "uint256"
        },
        {
          "indexed": false,
          "internalType": "uint256",
          "name": "adjustedClose",
          "type": "uint256"
        },
        {
          "indexed": false,
          "internalType": "uint256",
          "name": "gap",
          "type": "uint256"
        },
        {
          "indexed": false,
          "internalType": "bool",
          "name": "paidOut",
          "type": "bool"
        }
      ],
      "name": "PolicySettled",
      "type": "event"
    },
    {
      "anonymous": false,
      "inputs": [
        {
          "indexed": true,
          "internalType": "uint256",
          "name": "policyId",
          "type": "uint256"
        },
        {
          "indexed": true,
          "internalType": "address",
          "name": "from",
          "type": "address"
        },
        {
          "indexed": true,
          "internalType": "address",
          "name": "to",
          "type": "address"
        },
        {
          "indexed": false,
          "internalType": "uint256",
          "name": "fee",
          "type": "uint256"
        }
      ],
      "name": "PolicyTransferred",
      "type": "event"
    },
    {
      "anonymous": false,
      "inputs": [
        {
          "indexed": false,
          "internalType": "uint256",
          "name": "processed",
          "type": "uint256"
        },
        {
          "indexed": false,
          "internalType": "uint256",
          "name": "remainingLiquidity",
          "type": "uint256"
        },
        {
          "indexed": false,
          "internalType": "uint256",
          "name": "newQueueHead",
          "type": "uint256"
        }
      ],
      "name": "QueueProcessed",
      "type": "event"
    },
    {
      "anonymous": false,
      "inputs": [
        {
          "indexed": false,
          "internalType": "uint256",
          "name": "shortfall",
          "type": "uint256"
        },
        {
          "indexed": false,
          "internalType": "uint256",
          "name": "totalCoverage",
          "type": "uint256"
        },
        {
          "indexed": false,
          "internalType": "uint256",
          "name": "policyId",
          "type": "uint256"
        }
      ],
      "name": "ReserveUsed",
      "type": "event"
    },
    {
      "anonymous": false,
      "inputs": [
        {
          "indexed": true,
          "internalType": "uint256",
          "name": "week",
          "type": "uint256"
        },
        {
          "indexed": false,
          "internalType": "uint256",
          "name": "splitRatio",
          "type": "uint256"
        },
        {
          "indexed": false,
          "internalType": "string",
          "name": "reason",
          "type": "string"
        },
        {
          "indexed": false,
          "internalType": "uint256",
          "name": "timestamp",
          "type": "uint256"
        }
      ],
      "name": "SettlementApproved",
      "type": "event"
    },
    {
      "anonymous": false,
      "inputs": [
        {
          "indexed": true,
          "internalType": "address",
          "name": "staker",
          "type": "address"
        },
        {
          "indexed": false,
          "internalType": "uint256",
          "name": "amount",
          "type": "uint256"
        },
        {
          "indexed": false,
          "internalType": "uint256",
          "name": "timestamp",
          "type": "uint256"
        }
      ],
      "name": "Staked",
      "type": "event"
    },
    {
      "anonymous": false,
      "inputs": [
        {
          "indexed": true,
          "internalType": "address",
          "name": "owner",
          "type": "address"
        },
        {
          "indexed": true,
          "internalType": "uint256",
          "name": "subId",
          "type": "uint256"
        },
        {
          "indexed": false,
          "internalType": "uint256",
          "name": "numWeeks",
          "type": "uint256"
        },
        {
          "indexed": false,
          "internalType": "uint256",
          "name": "totalPremium",
          "type": "uint256"
        }
      ],
      "name": "SubscriptionCreated",
      "type": "event"
    },
    {
      "anonymous": false,
      "inputs": [
        {
          "indexed": true,
          "internalType": "address",
          "name": "from",
          "type": "address"
        },
        {
          "indexed": true,
          "internalType": "address",
          "name": "to",
          "type": "address"
        },
        {
          "indexed": true,
          "internalType": "uint256",
          "name": "tokenId",
          "type": "uint256"
        }
      ],
      "name": "Transfer",
      "type": "event"
    },
    {
      "anonymous": false,
      "inputs": [
        {
          "indexed": true,
          "internalType": "address",
          "name": "oldTreasury",
          "type": "address"
        },
        {
          "indexed": true,
          "internalType": "address",
          "name": "newTreasury",
          "type": "address"
        }
      ],
      "name": "TreasuryUpdated",
      "type": "event"
    },
    {
      "anonymous": false,
      "inputs": [
        {
          "indexed": true,
          "internalType": "address",
          "name": "by",
          "type": "address"
        }
      ],
      "name": "Unpaused",
      "type": "event"
    },
    {
      "anonymous": false,
      "inputs": [
        {
          "indexed": false,
          "internalType": "uint256",
          "name": "timestamp",
          "type": "uint256"
        }
      ],
      "name": "VolatilityChangeCancelled",
      "type": "event"
    },
    {
      "anonymous": false,
      "inputs": [
        {
          "indexed": false,
          "internalType": "uint256",
          "name": "newVolatility",
          "type": "uint256"
        },
        {
          "indexed": false,
          "internalType": "uint256",
          "name": "executeAfter",
          "type": "uint256"
        },
        {
          "indexed": false,
          "internalType": "string",
          "name": "reason",
          "type": "string"
        }
      ],
      "name": "VolatilityChangeQueued",
      "type": "event"
    },
    {
      "anonymous": false,
      "inputs": [
        {
          "indexed": false,
          "internalType": "uint256",
          "name": "oldVolatility",
          "type": "uint256"
        },
        {
          "indexed": false,
          "internalType": "uint256",
          "name": "newVolatility",
          "type": "uint256"
        }
      ],
      "name": "VolatilityUpdated",
      "type": "event"
    },
    {
      "anonymous": false,
      "inputs": [
        {
          "indexed": true,
          "internalType": "address",
          "name": "staker",
          "type": "address"
        },
        {
          "indexed": false,
          "internalType": "uint256",
          "name": "requestId",
          "type": "uint256"
        },
        {
          "indexed": false,
          "internalType": "uint256",
          "name": "timestamp",
          "type": "uint256"
        }
      ],
      "name": "WithdrawalCancelled",
      "type": "event"
    },
    {
      "anonymous": false,
      "inputs": [
        {
          "indexed": true,
          "internalType": "address",
          "name": "staker",
          "type": "address"
        },
        {
          "indexed": false,
          "internalType": "uint256",
          "name": "amount",
          "type": "uint256"
        },
        {
          "indexed": false,
          "internalType": "uint256",
          "name": "requestId",
          "type": "uint256"
        },
        {
          "indexed": false,
          "internalType": "uint256",
          "name": "timestamp",
          "type": "uint256"
        }
      ],
      "name": "WithdrawalProcessed",
      "type": "event"
    },
    {
      "anonymous": false,
      "inputs": [
        {
          "indexed": true,
          "internalType": "address",
          "name": "staker",
          "type": "address"
        },
        {
          "indexed": false,
          "internalType": "uint256",
          "name": "amount",
          "type": "uint256"
        },
        {
          "indexed": false,
          "internalType": "uint256",
          "name": "requestId",
          "type": "uint256"
        },
        {
          "indexed": false,
          "internalType": "uint256",
          "name": "position",
          "type": "uint256"
        },
        {
          "indexed": false,
          "internalType": "uint256",
          "name": "estimatedWait",
          "type": "uint256"
        },
        {
          "indexed": false,
          "internalType": "uint256",
          "name": "timestamp",
          "type": "uint256"
        }
      ],
      "name": "WithdrawalQueued",
      "type": "event"
    },
    {
      "inputs": [],
      "name": "AVG_VOLATILITY",
      "outputs": [
        {
          "internalType": "uint256",
          "name": "",
          "type": "uint256"
        }
      ],
      "stateMutability": "view",
      "type": "function"
    },
    {
      "inputs": [],
      "name": "BLACK_SWAN_BPS",
      "outputs": [
        {
          "internalType": "uint256",
          "name": "",
          "type": "uint256"
        }
      ],
      "stateMutability": "view",
      "type": "function"
    },
    {
      "inputs": [],
      "name": "CLAIM_RESERVE_BPS",
      "outputs": [
        {
          "internalType": "uint256",
          "name": "",
          "type": "uint256"
        }
      ],
      "stateMutability": "view",
      "type": "function"
    },
    {
      "inputs": [],
      "name": "DISCOUNT_4_WEEKS",
      "outputs": [
        {
          "internalType": "uint256",
          "name": "",
          "type": "uint256"
        }
      ],
      "stateMutability": "view",
      "type": "function"
    },
    {
      "inputs": [],
      "name": "DISCOUNT_8_WEEKS",
      "outputs": [
        {
          "internalType": "uint256",
          "name": "",
          "type": "uint256"
        }
      ],
      "stateMutability": "view",
      "type": "function"
    },
    {
      "inputs": [],
      "name": "FAILSAFE_DELAY",
      "outputs": [
        {
          "internalType": "uint256",
          "name": "",
          "type": "uint256"
        }
      ],
      "stateMutability": "view",
      "type": "function"
    },
    {
      "inputs": [],
      "name": "GAPS_PER_WEEK",
      "outputs": [
        {
          "internalType": "uint256",
          "name": "",
          "type": "uint256"
        }
      ],
      "stateMutability": "view",
      "type": "function"
    },
    {
      "inputs": [],
      "name": "MAX_POLICY_COVERAGE",
      "outputs": [
        {
          "internalType": "uint256",
          "name": "",
          "type": "uint256"
        }
      ],
      "stateMutability": "view",
      "type": "function"
    },
    {
      "inputs": [],
      "name": "MAX_QUEUE_PROCESS",
      "outputs": [
        {
          "internalType": "uint256",
          "name": "",
          "type": "uint256"
        }
      ],
      "stateMutability": "view",
      "type": "function"
    },
    {
      "inputs": [],
      "name": "PLAN_1_WEEK",
      "outputs": [
        {
          "internalType": "uint256",
          "name": "",
          "type": "uint256"
        }
      ],
      "stateMutability": "view",
      "type": "function"
    },
    {
      "inputs": [],
      "name": "PLAN_4_WEEKS",
      "outputs": [
        {
          "internalType": "uint256",
          "name": "",
          "type": "uint256"
        }
      ],
      "stateMutability": "view",
      "type": "function"
    },
    {
      "inputs": [],
      "name": "PLAN_8_WEEKS",
      "outputs": [
        {
          "internalType": "uint256",
          "name": "",
          "type": "uint256"
        }
      ],
      "stateMutability": "view",
      "type": "function"
    },
    {
      "inputs": [],
      "name": "PROTOCOL_FEE_BPS",
      "outputs": [
        {
          "internalType": "uint256",
          "name": "",
          "type": "uint256"
        }
      ],
      "stateMutability": "view",
      "type": "function"
    },
    {
      "inputs": [],
      "name": "STAKER_YIELD_BPS",
      "outputs": [
        {
          "internalType": "uint256",
          "name": "",
          "type": "uint256"
        }
      ],
      "stateMutability": "view",
      "type": "function"
    },
    {
      "inputs": [],
      "name": "THRESHOLD_10",
      "outputs": [
        {
          "internalType": "uint256",
          "name": "",
          "type": "uint256"
        }
      ],
      "stateMutability": "view",
      "type": "function"
    },
    {
      "inputs": [],
      "name": "THRESHOLD_5",
      "outputs": [
        {
          "internalType": "uint256",
          "name": "",
          "type": "uint256"
        }
      ],
      "stateMutability": "view",
      "type": "function"
    },
    {
      "inputs": [],
      "name": "TIER_10_RATE",
      "outputs": [
        {
          "internalType": "uint256",
          "name": "",
          "type": "uint256"
        }
      ],
      "stateMutability": "view",
      "type": "function"
    },
    {
      "inputs": [],
      "name": "TIER_5_RATE",
      "outputs": [
        {
          "internalType": "uint256",
          "name": "",
          "type": "uint256"
        }
      ],
      "stateMutability": "view",
      "type": "function"
    },
    {
      "inputs": [],
      "name": "TRANSFER_FEE_BPS",
      "outputs": [
        {
          "internalType": "uint256",
          "name": "",
          "type": "uint256"
        }
      ],
      "stateMutability": "view",
      "type": "function"
    },
    {
      "inputs": [],
      "name": "USDC",
      "outputs": [
        {
          "internalType": "contract IERC20",
          "name": "",
          "type": "address"
        }
      ],
      "stateMutability": "view",
      "type": "function"
    },
    {
      "inputs": [],
      "name": "VOLATILITY_TIMELOCK",
      "outputs": [
        {
          "internalType": "uint256",
          "name": "",
          "type": "uint256"
        }
      ],
      "stateMutability": "view",
      "type": "function"
    },
    {
      "inputs": [
        {
          "internalType": "address",
          "name": "to",
          "type": "address"
        },
        {
          "internalType": "uint256",
          "name": "tokenId",
          "type": "uint256"
        }
      ],
      "name": "approve",
      "outputs": [],
      "stateMutability": "nonpayable",
      "type": "function"
    },
    {
      "inputs": [
        {
          "internalType": "uint256",
          "name": "week",
          "type": "uint256"
        },
        {
          "internalType": "uint256",
          "name": "splitRatio",
          "type": "uint256"
        },
        {
          "internalType": "string",
          "name": "reason",
          "type": "string"
        }
      ],
      "name": "approveSettlement",
      "outputs": [],
      "stateMutability": "nonpayable",
      "type": "function"
    },
    {
      "inputs": [
        {
          "internalType": "address",
          "name": "owner",
          "type": "address"
        }
      ],
      "name": "balanceOf",
      "outputs": [
        {
          "internalType": "uint256",
          "name": "",
          "type": "uint256"
        }
      ],
      "stateMutability": "view",
      "type": "function"
    },
    {
      "inputs": [],
      "name": "blackSwanReserve",
      "outputs": [
        {
          "internalType": "uint256",
          "name": "",
          "type": "uint256"
        }
      ],
      "stateMutability": "view",
      "type": "function"
    },
    {
      "inputs": [
        {
          "internalType": "uint256",
          "name": "coverage",
          "type": "uint256"
        },
        {
          "internalType": "uint256",
          "name": "threshold",
          "type": "uint256"
        }
      ],
      "name": "buyPolicy",
      "outputs": [
        {
          "internalType": "uint256",
          "name": "",
          "type": "uint256"
        }
      ],
      "stateMutability": "nonpayable",
      "type": "function"
    },
    {
      "inputs": [
        {
          "internalType": "uint256",
          "name": "coverage",
          "type": "uint256"
        },
        {
          "internalType": "uint256",
          "name": "threshold",
          "type": "uint256"
        },
        {
          "internalType": "uint256",
          "name": "gapWeek",
          "type": "uint256"
        },
        {
          "internalType": "uint256",
          "name": "gapDay",
          "type": "uint256"
        }
      ],
      "name": "buyPolicy",
      "outputs": [
        {
          "internalType": "uint256",
          "name": "",
          "type": "uint256"
        }
      ],
      "stateMutability": "nonpayable",
      "type": "function"
    },
    {
      "inputs": [
        {
          "internalType": "uint256",
          "name": "coverage",
          "type": "uint256"
        },
        {
          "internalType": "uint256",
          "name": "threshold",
          "type": "uint256"
        },
        {
          "internalType": "uint256",
          "name": "numWeeks",
          "type": "uint256"
        }
      ],
      "name": "buySubscription",
      "outputs": [
        {
          "internalType": "uint256",
          "name": "",
          "type": "uint256"
        }
      ],
      "stateMutability": "nonpayable",
      "type": "function"
    },
    {
      "inputs": [
        {
          "internalType": "uint256",
          "name": "priceA",
          "type": "uint256"
        },
        {
          "internalType": "uint256",
          "name": "priceB",
          "type": "uint256"
        }
      ],
      "name": "calculateGap",
      "outputs": [
        {
          "internalType": "uint256",
          "name": "",
          "type": "uint256"
        }
      ],
      "stateMutability": "pure",
      "type": "function"
    },
    {
      "inputs": [
        {
          "internalType": "uint256",
          "name": "coverage",
          "type": "uint256"
        },
        {
          "internalType": "uint256",
          "name": "threshold",
          "type": "uint256"
        }
      ],
      "name": "calculatePremium",
      "outputs": [
        {
          "internalType": "uint256",
          "name": "",
          "type": "uint256"
        }
      ],
      "stateMutability": "view",
      "type": "function"
    },
    {
      "inputs": [
        {
          "internalType": "uint256",
          "name": "coverage",
          "type": "uint256"
        }
      ],
      "name": "calculatePremium",
      "outputs": [
        {
          "internalType": "uint256",
          "name": "",
          "type": "uint256"
        }
      ],
      "stateMutability": "view",
      "type": "function"
    },
    {
      "inputs": [
        {
          "internalType": "address",
          "name": "user",
          "type": "address"
        },
        {
          "internalType": "uint256",
          "name": "coverage",
          "type": "uint256"
        },
        {
          "internalType": "uint256",
          "name": "threshold",
          "type": "uint256"
        }
      ],
      "name": "canBuyPolicy",
      "outputs": [
        {
          "internalType": "bool",
          "name": "canBuy",
          "type": "bool"
        },
        {
          "internalType": "string",
          "name": "reason",
          "type": "string"
        },
        {
          "internalType": "uint256",
          "name": "estimatedPremium",
          "type": "uint256"
        }
      ],
      "stateMutability": "view",
      "type": "function"
    },
    {
      "inputs": [
        {
          "internalType": "uint256",
          "name": "week",
          "type": "uint256"
        }
      ],
      "name": "canSettle",
      "outputs": [
        {
          "internalType": "bool",
          "name": "allowed",
          "type": "bool"
        },
        {
          "internalType": "uint256",
          "name": "splitRatio",
          "type": "uint256"
        },
        {
          "internalType": "string",
          "name": "reason",
          "type": "string"
        }
      ],
      "stateMutability": "view",
      "type": "function"
    },
    {
      "inputs": [],
      "name": "cancelVolatilityChange",
      "outputs": [],
      "stateMutability": "nonpayable",
      "type": "function"
    },
    {
      "inputs": [
        {
          "internalType": "uint256",
          "name": "requestId",
          "type": "uint256"
        }
      ],
      "name": "cancelWithdrawalRequest",
      "outputs": [],
      "stateMutability": "nonpayable",
      "type": "function"
    },
    {
      "inputs": [],
      "name": "currentVolatility",
      "outputs": [
        {
          "internalType": "uint256",
          "name": "",
          "type": "uint256"
        }
      ],
      "stateMutability": "view",
      "type": "function"
    },
    {
      "inputs": [],
      "name": "executeVolatilityChange",
      "outputs": [],
      "stateMutability": "nonpayable",
      "type": "function"
    },
    {
      "inputs": [
        {
          "internalType": "uint256",
          "name": "tokenId",
          "type": "uint256"
        }
      ],
      "name": "getApproved",
      "outputs": [
        {
          "internalType": "address",
          "name": "",
          "type": "address"
        }
      ],
      "stateMutability": "view",
      "type": "function"
    },
    {
      "inputs": [],
      "name": "getCurrentSettlementWeek",
      "outputs": [
        {
          "internalType": "uint256",
          "name": "",
          "type": "uint256"
        }
      ],
      "stateMutability": "view",
      "type": "function"
    },
    {
      "inputs": [],
      "name": "getCurrentUtilization",
      "outputs": [
        {
          "internalType": "uint256",
          "name": "",
          "type": "uint256"
        }
      ],
      "stateMutability": "view",
      "type": "function"
    },
    {
      "inputs": [
        {
          "internalType": "uint256",
          "name": "weekNumber",
          "type": "uint256"
        }
      ],
      "name": "getFriday",
      "outputs": [
        {
          "internalType": "uint256",
          "name": "",
          "type": "uint256"
        }
      ],
      "stateMutability": "pure",
      "type": "function"
    },
    {
      "inputs": [
        {
          "internalType": "uint256",
          "name": "weekNumber",
          "type": "uint256"
        },
        {
          "internalType": "uint256",
          "name": "dayIndex",
          "type": "uint256"
        }
      ],
      "name": "getMarketClose",
      "outputs": [
        {
          "internalType": "uint256",
          "name": "",
          "type": "uint256"
        }
      ],
      "stateMutability": "pure",
      "type": "function"
    },
    {
      "inputs": [
        {
          "internalType": "uint256",
          "name": "weekNumber",
          "type": "uint256"
        }
      ],
      "name": "getMonday",
      "outputs": [
        {
          "internalType": "uint256",
          "name": "",
          "type": "uint256"
        }
      ],
      "stateMutability": "pure",
      "type": "function"
    },
    {
      "inputs": [
        {
          "internalType": "uint256",
          "name": "weekNumber",
          "type": "uint256"
        },
        {
          "internalType": "uint256",
          "name": "dayIndex",
          "type": "uint256"
        }
      ],
      "name": "getNextMarketOpen",
      "outputs": [
        {
          "internalType": "uint256",
          "name": "",
          "type": "uint256"
        }
      ],
      "stateMutability": "pure",
      "type": "function"
    },
    {
      "inputs": [
        {
          "internalType": "uint256[]",
          "name": "policyIds",
          "type": "uint256[]"
        }
      ],
      "name": "getPolicies",
      "outputs": [
        {
          "components": [
            {
              "internalType": "address",
              "name": "holder",
              "type": "address"
            },
            {
              "internalType": "uint256",
              "name": "coverage",
              "type": "uint256"
            },
            {
              "internalType": "uint256",
              "name": "threshold",
              "type": "uint256"
            },
            {
              "internalType": "uint256",
              "name": "premium",
              "type": "uint256"
            },
            {
              "internalType": "uint256",
              "name": "purchaseTime",
              "type": "uint256"
            },
            {
              "internalType": "uint256",
              "name": "closePrice",
              "type": "uint256"
            },
            {
              "internalType": "uint256",
              "name": "gapWeek",
              "type": "uint256"
            },
            {
              "internalType": "uint256",
              "name": "gapDay",
              "type": "uint256"
            },
            {
              "internalType": "bool",
              "name": "settled",
              "type": "bool"
            },
            {
              "internalType": "bool",
              "name": "paidOut",
              "type": "bool"
            }
          ],
          "internalType": "struct HoodGap.Policy[]",
          "name": "result",
          "type": "tuple[]"
        }
      ],
      "stateMutability": "view",
      "type": "function"
    },
    {
      "inputs": [],
      "name": "getPoolStats",
      "outputs": [
        {
          "internalType": "uint256",
          "name": "_totalStaked",
          "type": "uint256"
        },
        {
          "internalType": "uint256",
          "name": "_totalCoverage",
          "type": "uint256"
        },
        {
          "internalType": "uint256",
          "name": "_utilization",
          "type": "uint256"
        },
        {
          "internalType": "uint256",
          "name": "_reserveBalance",
          "type": "uint256"
        },
        {
          "internalType": "uint256",
          "name": "_blackSwanReserve",
          "type": "uint256"
        },
        {
          "internalType": "uint256",
          "name": "_activePolicies",
          "type": "uint256"
        }
      ],
      "stateMutability": "view",
      "type": "function"
    },
    {
      "inputs": [],
      "name": "getQueueStats",
      "outputs": [
        {
          "internalType": "uint256",
          "name": "head",
          "type": "uint256"
        },
        {
          "internalType": "uint256",
          "name": "length",
          "type": "uint256"
        },
        {
          "internalType": "uint256",
          "name": "pending",
          "type": "uint256"
        },
        {
          "internalType": "uint256",
          "name": "dollarAhead",
          "type": "uint256"
        },
        {
          "internalType": "uint256",
          "name": "freeLiquidity",
          "type": "uint256"
        }
      ],
      "stateMutability": "view",
      "type": "function"
    },
    {
      "inputs": [
        {
          "internalType": "uint256",
          "name": "subId",
          "type": "uint256"
        }
      ],
      "name": "getSubscription",
      "outputs": [
        {
          "components": [
            {
              "internalType": "address",
              "name": "owner",
              "type": "address"
            },
            {
              "internalType": "uint256",
              "name": "coverage",
              "type": "uint256"
            },
            {
              "internalType": "uint256",
              "name": "threshold",
              "type": "uint256"
            },
            {
              "internalType": "uint256",
              "name": "premiumPerWeek",
              "type": "uint256"
            },
            {
              "internalType": "uint256",
              "name": "startWeek",
              "type": "uint256"
            },
            {
              "internalType": "uint256",
              "name": "totalWeeks",
              "type": "uint256"
            },
            {
              "internalType": "uint256",
              "name": "gapsMinted",
              "type": "uint256"
            }
          ],
          "internalType": "struct HoodGap.Subscription",
          "name": "",
          "type": "tuple"
        }
      ],
      "stateMutability": "view",
      "type": "function"
    },
    {
      "inputs": [
        {
          "internalType": "uint256",
          "name": "threshold",
          "type": "uint256"
        }
      ],
      "name": "getTierRate",
      "outputs": [
        {
          "internalType": "uint256",
          "name": "",
          "type": "uint256"
        }
      ],
      "stateMutability": "pure",
      "type": "function"
    },
    {
      "inputs": [
        {
          "internalType": "address",
          "name": "user",
          "type": "address"
        }
      ],
      "name": "getUserWithdrawals",
      "outputs": [
        {
          "components": [
            {
              "internalType": "address",
              "name": "staker",
              "type": "address"
            },
            {
              "internalType": "uint256",
              "name": "amount",
              "type": "uint256"
            },
            {
              "internalType": "uint256",
              "name": "requestTime",
              "type": "uint256"
            },
            {
              "internalType": "bool",
              "name": "processed",
              "type": "bool"
            }
          ],
          "internalType": "struct HoodGap.WithdrawalRequest[]",
          "name": "requests",
          "type": "tuple[]"
        }
      ],
      "stateMutability": "view",
      "type": "function"
    },
    {
      "inputs": [
        {
          "internalType": "uint256",
          "name": "newCoverage",
          "type": "uint256"
        }
      ],
      "name": "getUtilizationMultiplier",
      "outputs": [
        {
          "internalType": "uint256",
          "name": "",
          "type": "uint256"
        }
      ],
      "stateMutability": "view",
      "type": "function"
    },
    {
      "inputs": [],
      "name": "getVolatilityMultiplier",
      "outputs": [
        {
          "internalType": "uint256",
          "name": "",
          "type": "uint256"
        }
      ],
      "stateMutability": "view",
      "type": "function"
    },
    {
      "inputs": [
        {
          "internalType": "uint256",
          "name": "timestamp",
          "type": "uint256"
        }
      ],
      "name": "getWeekNumber",
      "outputs": [
        {
          "internalType": "uint256",
          "name": "",
          "type": "uint256"
        }
      ],
      "stateMutability": "pure",
      "type": "function"
    },
    {
      "inputs": [
        {
          "internalType": "address",
          "name": "owner",
          "type": "address"
        },
        {
          "internalType": "address",
          "name": "operator",
          "type": "address"
        }
      ],
      "name": "isApprovedForAll",
      "outputs": [
        {
          "internalType": "bool",
          "name": "",
          "type": "bool"
        }
      ],
      "stateMutability": "view",
      "type": "function"
    },
    {
      "inputs": [
        {
          "internalType": "uint256",
          "name": "subId",
          "type": "uint256"
        }
      ],
      "name": "mintAllAvailableGaps",
      "outputs": [],
      "stateMutability": "nonpayable",
      "type": "function"
    },
    {
      "inputs": [
        {
          "internalType": "uint256",
          "name": "subId",
          "type": "uint256"
        }
      ],
      "name": "mintGapPolicy",
      "outputs": [],
      "stateMutability": "nonpayable",
      "type": "function"
    },
    {
      "inputs": [],
      "name": "name",
      "outputs": [
        {
          "internalType": "string",
          "name": "",
          "type": "string"
        }
      ],
      "stateMutability": "view",
      "type": "function"
    },
    {
      "inputs": [],
      "name": "nextPolicyId",
      "outputs": [
        {
          "internalType": "uint256",
          "name": "",
          "type": "uint256"
        }
      ],
      "stateMutability": "view",
      "type": "function"
    },
    {
      "inputs": [],
      "name": "nextSubscriptionId",
      "outputs": [
        {
          "internalType": "uint256",
          "name": "",
          "type": "uint256"
        }
      ],
      "stateMutability": "view",
      "type": "function"
    },
    {
      "inputs": [],
      "name": "owner",
      "outputs": [
        {
          "internalType": "address",
          "name": "",
          "type": "address"
        }
      ],
      "stateMutability": "view",
      "type": "function"
    },
    {
      "inputs": [
        {
          "internalType": "uint256",
          "name": "tokenId",
          "type": "uint256"
        }
      ],
      "name": "ownerOf",
      "outputs": [
        {
          "internalType": "address",
          "name": "",
          "type": "address"
        }
      ],
      "stateMutability": "view",
      "type": "function"
    },
    {
      "inputs": [],
      "name": "pause",
      "outputs": [],
      "stateMutability": "nonpayable",
      "type": "function"
    },
    {
      "inputs": [],
      "name": "paused",
      "outputs": [
        {
          "internalType": "bool",
          "name": "",
          "type": "bool"
        }
      ],
      "stateMutability": "view",
      "type": "function"
    },
    {
      "inputs": [],
      "name": "pendingVolatilityChange",
      "outputs": [
        {
          "internalType": "uint256",
          "name": "value",
          "type": "uint256"
        },
        {
          "internalType": "uint256",
          "name": "executeAfter",
          "type": "uint256"
        },
        {
          "internalType": "bool",
          "name": "exists",
          "type": "bool"
        },
        {
          "internalType": "string",
          "name": "description",
          "type": "string"
        }
      ],
      "stateMutability": "view",
      "type": "function"
    },
    {
      "inputs": [
        {
          "internalType": "uint256",
          "name": "",
          "type": "uint256"
        }
      ],
      "name": "policies",
      "outputs": [
        {
          "internalType": "address",
          "name": "holder",
          "type": "address"
        },
        {
          "internalType": "uint256",
          "name": "coverage",
          "type": "uint256"
        },
        {
          "internalType": "uint256",
          "name": "threshold",
          "type": "uint256"
        },
        {
          "internalType": "uint256",
          "name": "premium",
          "type": "uint256"
        },
        {
          "internalType": "uint256",
          "name": "purchaseTime",
          "type": "uint256"
        },
        {
          "internalType": "uint256",
          "name": "closePrice",
          "type": "uint256"
        },
        {
          "internalType": "uint256",
          "name": "gapWeek",
          "type": "uint256"
        },
        {
          "internalType": "uint256",
          "name": "gapDay",
          "type": "uint256"
        },
        {
          "internalType": "bool",
          "name": "settled",
          "type": "bool"
        },
        {
          "internalType": "bool",
          "name": "paidOut",
          "type": "bool"
        }
      ],
      "stateMutability": "view",
      "type": "function"
    },
    {
      "inputs": [
        {
          "internalType": "uint256",
          "name": "",
          "type": "uint256"
        }
      ],
      "name": "policySubscriptionId",
      "outputs": [
        {
          "internalType": "uint256",
          "name": "",
          "type": "uint256"
        }
      ],
      "stateMutability": "view",
      "type": "function"
    },
    {
      "inputs": [],
      "name": "priceOracle",
      "outputs": [
        {
          "internalType": "contract AggregatorV3Interface",
          "name": "",
          "type": "address"
        }
      ],
      "stateMutability": "view",
      "type": "function"
    },
    {
      "inputs": [
        {
          "internalType": "uint256",
          "name": "maxToProcess",
          "type": "uint256"
        }
      ],
      "name": "processWithdrawalQueue",
      "outputs": [],
      "stateMutability": "nonpayable",
      "type": "function"
    },
    {
      "inputs": [],
      "name": "queueHead",
      "outputs": [
        {
          "internalType": "uint256",
          "name": "",
          "type": "uint256"
        }
      ],
      "stateMutability": "view",
      "type": "function"
    },
    {
      "inputs": [
        {
          "internalType": "uint256",
          "name": "newVolatility",
          "type": "uint256"
        },
        {
          "internalType": "string",
          "name": "reason",
          "type": "string"
        }
      ],
      "name": "queueVolatilityChange",
      "outputs": [],
      "stateMutability": "nonpayable",
      "type": "function"
    },
    {
      "inputs": [],
      "name": "renounceOwnership",
      "outputs": [],
      "stateMutability": "nonpayable",
      "type": "function"
    },
    {
      "inputs": [
        {
          "internalType": "uint256",
          "name": "amount",
          "type": "uint256"
        }
      ],
      "name": "requestWithdrawal",
      "outputs": [],
      "stateMutability": "nonpayable",
      "type": "function"
    },
    {
      "inputs": [],
      "name": "reserveBalance",
      "outputs": [
        {
          "internalType": "uint256",
          "name": "",
          "type": "uint256"
        }
      ],
      "stateMutability": "view",
      "type": "function"
    },
    {
      "inputs": [
        {
          "internalType": "address",
          "name": "from",
          "type": "address"
        },
        {
          "internalType": "address",
          "name": "to",
          "type": "address"
        },
        {
          "internalType": "uint256",
          "name": "tokenId",
          "type": "uint256"
        }
      ],
      "name": "safeTransferFrom",
      "outputs": [],
      "stateMutability": "nonpayable",
      "type": "function"
    },
    {
      "inputs": [
        {
          "internalType": "address",
          "name": "from",
          "type": "address"
        },
        {
          "internalType": "address",
          "name": "to",
          "type": "address"
        },
        {
          "internalType": "uint256",
          "name": "tokenId",
          "type": "uint256"
        },
        {
          "internalType": "bytes",
          "name": "data",
          "type": "bytes"
        }
      ],
      "name": "safeTransferFrom",
      "outputs": [],
      "stateMutability": "nonpayable",
      "type": "function"
    },
    {
      "inputs": [
        {
          "internalType": "address",
          "name": "operator",
          "type": "address"
        },
        {
          "internalType": "bool",
          "name": "approved",
          "type": "bool"
        }
      ],
      "name": "setApprovalForAll",
      "outputs": [],
      "stateMutability": "nonpayable",
      "type": "function"
    },
    {
      "inputs": [
        {
          "internalType": "address",
          "name": "newTreasury",
          "type": "address"
        }
      ],
      "name": "setTreasury",
      "outputs": [],
      "stateMutability": "nonpayable",
      "type": "function"
    },
    {
      "inputs": [
        {
          "internalType": "uint256",
          "name": "policyId",
          "type": "uint256"
        }
      ],
      "name": "settlePolicy",
      "outputs": [],
      "stateMutability": "nonpayable",
      "type": "function"
    },
    {
      "inputs": [
        {
          "internalType": "uint256",
          "name": "",
          "type": "uint256"
        }
      ],
      "name": "settlementApproved",
      "outputs": [
        {
          "internalType": "bool",
          "name": "",
          "type": "bool"
        }
      ],
      "stateMutability": "view",
      "type": "function"
    },
    {
      "inputs": [
        {
          "internalType": "uint256",
          "name": "",
          "type": "uint256"
        }
      ],
      "name": "settlementApprovedTime",
      "outputs": [
        {
          "internalType": "uint256",
          "name": "",
          "type": "uint256"
        }
      ],
      "stateMutability": "view",
      "type": "function"
    },
    {
      "inputs": [
        {
          "internalType": "uint256",
          "name": "",
          "type": "uint256"
        }
      ],
      "name": "splitRatios",
      "outputs": [
        {
          "internalType": "uint256",
          "name": "",
          "type": "uint256"
        }
      ],
      "stateMutability": "view",
      "type": "function"
    },
    {
      "inputs": [
        {
          "internalType": "uint256",
          "name": "amount",
          "type": "uint256"
        }
      ],
      "name": "stake",
      "outputs": [],
      "stateMutability": "nonpayable",
      "type": "function"
    },
    {
      "inputs": [
        {
          "internalType": "address",
          "name": "",
          "type": "address"
        }
      ],
      "name": "stakerBalances",
      "outputs": [
        {
          "internalType": "uint256",
          "name": "",
          "type": "uint256"
        }
      ],
      "stateMutability": "view",
      "type": "function"
    },
    {
      "inputs": [
        {
          "internalType": "uint256",
          "name": "",
          "type": "uint256"
        }
      ],
      "name": "subscriptions",
      "outputs": [
        {
          "internalType": "address",
          "name": "owner",
          "type": "address"
        },
        {
          "internalType": "uint256",
          "name": "coverage",
          "type": "uint256"
        },
        {
          "internalType": "uint256",
          "name": "threshold",
          "type": "uint256"
        },
        {
          "internalType": "uint256",
          "name": "premiumPerWeek",
          "type": "uint256"
        },
        {
          "internalType": "uint256",
          "name": "startWeek",
          "type": "uint256"
        },
        {
          "internalType": "uint256",
          "name": "totalWeeks",
          "type": "uint256"
        },
        {
          "internalType": "uint256",
          "name": "gapsMinted",
          "type": "uint256"
        }
      ],
      "stateMutability": "view",
      "type": "function"
    },
    {
      "inputs": [
        {
          "internalType": "bytes4",
          "name": "interfaceId",
          "type": "bytes4"
        }
      ],
      "name": "supportsInterface",
      "outputs": [
        {
          "internalType": "bool",
          "name": "",
          "type": "bool"
        }
      ],
      "stateMutability": "view",
      "type": "function"
    },
    {
      "inputs": [],
      "name": "symbol",
      "outputs": [
        {
          "internalType": "string",
          "name": "",
          "type": "string"
        }
      ],
      "stateMutability": "view",
      "type": "function"
    },
    {
      "inputs": [
        {
          "internalType": "uint256",
          "name": "tokenId",
          "type": "uint256"
        }
      ],
      "name": "tokenURI",
      "outputs": [
        {
          "internalType": "string",
          "name": "",
          "type": "string"
        }
      ],
      "stateMutability": "view",
      "type": "function"
    },
    {
      "inputs": [],
      "name": "totalCoverage",
      "outputs": [
        {
          "internalType": "uint256",
          "name": "",
          "type": "uint256"
        }
      ],
      "stateMutability": "view",
      "type": "function"
    },
    {
      "inputs": [],
      "name": "totalStaked",
      "outputs": [
        {
          "internalType": "uint256",
          "name": "",
          "type": "uint256"
        }
      ],
      "stateMutability": "view",
      "type": "function"
    },
    {
      "inputs": [
        {
          "internalType": "address",
          "name": "from",
          "type": "address"
        },
        {
          "internalType": "address",
          "name": "to",
          "type": "address"
        },
        {
          "internalType": "uint256",
          "name": "tokenId",
          "type": "uint256"
        }
      ],
      "name": "transferFrom",
      "outputs": [],
      "stateMutability": "nonpayable",
      "type": "function"
    },
    {
      "inputs": [
        {
          "internalType": "address",
          "name": "newOwner",
          "type": "address"
        }
      ],
      "name": "transferOwnership",
      "outputs": [],
      "stateMutability": "nonpayable",
      "type": "function"
    },
    {
      "inputs": [],
      "name": "treasury",
      "outputs": [
        {
          "internalType": "address",
          "name": "",
          "type": "address"
        }
      ],
      "stateMutability": "view",
      "type": "function"
    },
    {
      "inputs": [],
      "name": "unpause",
      "outputs": [],
      "stateMutability": "nonpayable",
      "type": "function"
    },
    {
      "inputs": [
        {
          "internalType": "address",
          "name": "",
          "type": "address"
        },
        {
          "internalType": "uint256",
          "name": "",
          "type": "uint256"
        }
      ],
      "name": "userWithdrawalRequests",
      "outputs": [
        {
          "internalType": "uint256",
          "name": "",
          "type": "uint256"
        }
      ],
      "stateMutability": "view",
      "type": "function"
    },
    {
      "inputs": [
        {
          "internalType": "uint256",
          "name": "",
          "type": "uint256"
        }
      ],
      "name": "withdrawalQueue",
      "outputs": [
        {
          "internalType": "address",
          "name": "staker",
          "type": "address"
        },
        {
          "internalType": "uint256",
          "name": "amount",
          "type": "uint256"
        },
        {
          "internalType": "uint256",
          "name": "requestTime",
          "type": "uint256"
        },
        {
          "internalType": "bool",
          "name": "processed",
          "type": "bool"
        }
      ],
      "stateMutability": "view",
      "type": "function"
    }
  ],
  "bytecode": "0x60c03462000535576001600160401b0390601f199062005d74601f388290038181018516840190868211858310176200053a57808591604095869485528339810103126200053557620000528362000570565b9462000062602080950162000570565b6200006c62000550565b91600e83526d486f6f6447617020506f6c69637960901b868401526200009162000550565b93600494858152630484741560e41b88820152845198838a1162000520576000998a54966001978881811c9116801562000515575b8c8210146200050257908b82878f81879611620004a7575b92505050508b908d87841160011462000444579262000438575b5050600019600383901b1c191690871b178a555b8151938411620004255785548681811c911680156200041a575b8a82101462000407579081848695949311620003b0575b50899284116001146200034f5750899262000343575b5050600019600383901b1c191690831b1782555b33156200032c5760068054336001600160a01b0319821681179092558551986001600160a01b03948593919290919084167f8be0079c531659141344cd1fd0a4f28419497f9722a3daafe3b4186f6b6457e08b80a360075561138860185516968715620002eb575016928315620002ab575050836080528160a052601d54610100600160a81b033360081b1690610100600160a81b03191617601d5551927f4ca662a5f1f012e4d740b256559dce10a6b72cdec96be0142f5e2eb49dd37a6e339380a46157ee9081620005868239608051818181610ce2015281816112a50152818161181901528181611edd01528181612227015281816124df0152818161390b0152818161403601528181614b310152818161517301526153c0015260a051818181610b52015281816113050152818161253f015281816130480152614c8b0152f35b606492519162461bcd60e51b8352820152601660248201527f496e76616c6964206f7261636c652061646472657373000000000000000000006044820152fd5b62461bcd60e51b8152838101869052601460248201527f496e76616c6964205553444320616464726573730000000000000000000000006044820152606490fd5b8351631e4fbdf760e01b8152808401879052602490fd5b01519050388062000153565b868b52898b20879590939291168b5b8b8282106200039957505084116200037f575b505050811b01825562000167565b015160001960f88460031b161c1916905538808062000371565b83850151865589979095019493840193016200035e565b9091929350868b52898b208480870160051c8201928c8810620003fd575b9187968a92969594930160051c01915b828110620003ee5750506200013d565b8d8155879650899101620003de565b92508192620003ce565b634e487b7160e01b8b526022885260248bfd5b90607f169062000126565b634e487b7160e01b8a526041875260248afd5b015190503880620000f8565b91908d868c96169084805280852094905b8282106200048f575050841162000475575b505050811b018a556200010c565b015160001960f88460031b161c1916905538808062000467565b8385015186558d979095019493840193018f62000455565b8394955080809492939452209181860160051c8301938610620004f8575b859493910160051c909101908a908f5b838210620004e9578f9350899150620000de565b81558594508b91018f620004d5565b92508192620004c5565b634e487b7160e01b8d5260228a5260248dfd5b90607f1690620000c6565b604187634e487b7160e01b6000525260246000fd5b600080fd5b634e487b7160e01b600052604160045260246000fd5b60408051919082016001600160401b038111838210176200053a57604052565b51906001600160a01b0382168203620005355756fe6080604052600436101561001257600080fd5b60003560e01c806212100c146133bb57806301ffc9a71461334d57806306fdde03146132aa578063081812fc1461326c578063095ea7b3146131855780630a2364071461315f5780630b74ce721461313357806312f49319146130c757806314922394146130ab578063179f548a1461095c5780631e0823ad1461308e57806323b872dd146130775780632630c12f146130325780632d2afb18146130155780632d5bbf6014612fa0578063342c00b314612f8457806334f4d78e14612f67578063352d48ac14612ca35780633f4ba83a14612c5857806342842e0e14612c305780634495145d14612b2e578063452656ab14612a8057806345b05d09146128f1578063476277a1146128d557806348f54f03146128b75780634da314cd146127c55780634fb3e49d14612794578063528ecd7414612778578063585403ea1461275a57806358c88ce7146123f55780635c975abb146127375780635da2460d1461245757806361d027b31461242a5780636352211e146123fa5780636b177d13146123f55780636b717425146121495780636d2b19711461212b57806370a08231146120d2578063715018a6146120755780637238ff371461205c5780637a03922d1461203f5780637ab0d1e8146120135780637c7d4e8114611fe75780637ddddbe314611fce578063817b1cd214611fb05780638456cb5914611f625780638807b6fb14611f465780638952e57714611f0c57806389a3027114611ec75780638cbe096e14611ea95780638da5cb5b14611e805780638f43b2e714611c415780639224568e14611c2357806392b253cd14611beb57806395d89b4114611b265780639652364414611b0857806399d23c4214611aec5780639c4fd09314611ace5780639ce526d214611a3d5780639e445f0514611a215780639ee679e8146119fd578063a10954fe146119df578063a22cb46514611931578063a471e547146118d9578063a694fc3a146117bc578063aea0e5d61461176a578063b88d4fde14611709578063bbb85188146116a6578063bdb3c66014611689578063be3782281461166c578063c30e36171461164e578063c822adda146115ec578063c87b56dd14611599578063cad0b8db1461157b578063cb60c8221461120a578063d1155c93146110f6578063d3e8948314611057578063d51942e214611039578063d68a7c5214610a9a578063da58935f14610a7c578063dacd818414610a60578063daffae3914610a47578063dc311dd314610961578063dd27447f1461095c578063df69433b14610916578063dfd2b762146108ec578063e502eb681461072f578063e618fb591461070b578063e7d245ec146106e8578063e88f560414610616578063e985e9c5146105c0578063ec57d4a2146105a0578063f0f44260146104db578063f2fde38b146104535763fec33f081461043057600080fd5b3461044e57600036600319011261044e576020604051620151808152f35b600080fd5b3461044e57602036600319011261044e5761046c61342a565b6104746136db565b6001600160a01b039081169081156104c257600680546001600160a01b031981168417909155167f8be0079c531659141344cd1fd0a4f28419497f9722a3daafe3b4186f6b6457e0600080a3005b604051631e4fbdf760e01b815260006004820152602490fd5b3461044e57602036600319011261044e576104f461342a565b6104fc6136db565b6001600160a01b0381811691821561055b57601d8054610100600160a81b03198116600893841b610100600160a81b031617909155901c167f4ab5be82436d353e61ca18726e984e561f5c1cc7c6d38b29d2553c790434705a600080a3005b60405162461bcd60e51b815260206004820152601f60248201527f54726561737572792063616e6e6f74206265207a65726f2061646472657373006044820152606490fd5b3461044e57600036600319011261044e576020604051640ba43b74008152f35b3461044e57604036600319011261044e576105d961342a565b6105e1613440565b9060018060a01b03809116600052600560205260406000209116600052602052602060ff604060002054166040519015158152f35b3461044e57602036600319011261044e57600435610632614407565b806000526010602052604060002060059081810154828102908082048414901517156106d257600682019260049092019160005b8454838110806106c8575b156106bc576106919083610689875482840490613ddb565b910690615523565b42106106ae576106a9906106a487614c1a565b613f18565b610666565b5050505050505b6001600755005b505050505050506106b5565b50600a8210610671565b634e487b7160e01b600052601160045260246000fd5b3461044e57600036600319011261044e576020610703613f34565b604051908152f35b3461044e57602036600319011261044e57610724614407565b6106b5600435614c1a565b3461044e5760208060031936011261044e576001600160a01b03908161075361342a565b1660005260168152604060002090604051808383829554938481520190600052836000209260005b858282106108d657505050610792925003836135b2565b81519061079e826150a6565b916107ac60405193846135b2565b8083526107bb601f19916150a6565b018160005b8281106108a45750505060005b835181101561084257806107ed6107e761083d93876150bd565b516136bc565b5060ff6003604051926107ff8461350f565b898154168452600181015487850152600281015460408501520154161515606082015261082c82866150bd565b5261083781856150bd565b50613f18565b6107cd565b509150604051918083018184528251809152816040850193019160005b82811061086c5785850386f35b83518051881686528083015186840152604080820151908701526060908101511515908601526080909401939281019260010161085f565b6040516108b08161350f565b6000815260008382015260006040820152600060608201528282870101520182906107c0565b855484526001958601958895509301920161077b565b3461044e57600036600319011261044e57602061138861090d601854613c2f565b04604051908152f35b3461044e57602036600319011261044e57610958610935600435613de8565b6040939193519384931515845260208401526060604084015260608301906133ea565b0390f35b613456565b3461044e57602036600319011261044e57600060c060405161098281613546565b8281528260208201528260408201528260608201528260808201528260a08201520152600435600052601060205260e060406000206040516109c381613546565b60018060a01b0382541691828252600181015460208301908152600282015460408401908152600383015490606085019182526004840154926080860193845260c0600660058701549660a08901978852015496019586526040519687525160208701525160408601525160608501525160808401525160a08301525160c0820152f35b3461044e576020610703610a5a366133d4565b90615523565b3461044e57600036600319011261044e57602060405160148152f35b3461044e57600036600319011261044e576020600f54604051908152f35b3461044e5760208060031936011261044e5760043590610ab8614407565b81600052600e815260406000209060088083019283549160ff8316610ffb57600682015494600783015495610aed87826155d5565b96874210610fc057600403610fba57600181018091116106d257955b610b1287613de8565b90989115610f945750806000526013875260ff6040600020541615610f38575b50604051633fabe5a360e21b8152966001600160a01b039160a0896004817f000000000000000000000000000000000000000000000000000000000000000087165afa8015610def57600099600091610f01575b50610b9360008b13614969565b10610eb057610ba9612710916005870154613c46565b04936001610bb7868a615672565b9660ff1916178355600260018201610bd28154600954613f27565b600955549101548610610ea757905b81610c36575b887f867effe36b5d659ca18cf8d8e4c7b281891400082e7381bfe54b5cea01ca40b860808a8a8a8a60ff8b8b54901c1692604051948552840152604083015215156060820152a26106b561520f565b825461ff00191661010017835583548280821015610e97575050610c5b845483613f27565b600b54818110610dfb575080610c947f06e0ee44ab8cce23acace0bca38e4abb36384c5f6a44cc0052a187e86d8662a992600b54613f27565b600b555b6000865560095490610cb08c604051938493846146a4565b0390a15b610cbd89613b79565b60405163a9059cbb60e01b8152888180610cdb878660048401614fc1565b03816000877f0000000000000000000000000000000000000000000000000000000000000000165af1908115610def57600091610dc2575b5015610d84579260ff928a7fe7de3ce2ca3557f71281a490a3a9a320e1b2b11fba30fba9966c512b665c165c60407f867effe36b5d659ca18cf8d8e4c7b281891400082e7381bfe54b5cea01ca40b89c9a989560809c9a9882519586528a8c8701521693a392949650929496610be7565b60405162461bcd60e51b815260048101899052601660248201527514185e5bdd5d081d1c985b9cd9995c8819985a5b195960521b6044820152606490fd5b610de29150893d8b11610de8575b610dda81836135b2565b81019061438a565b8b610d13565b503d610dd0565b6040513d6000823e3d90fd5b610e059082613f27565b6000600b55600a54818110610e48577f06e0ee44ab8cce23acace0bca38e4abb36384c5f6a44cc0052a187e86d8662a99291610e4091613f27565b600a55610c98565b60405162461bcd60e51b8152600481018b9052602160248201527f496e73756666696369656e7420706f6f6c202b20726573657276652066756e646044820152607360f81b6064820152608490fd5b610ea091613f27565b8455610cb4565b50600090610be1565b60405162461bcd60e51b8152600481018890526024808201527f4f7261636c65206e6f7420757064617465642073696e6365206d61726b65742060448201526337b832b760e11b6064820152608490fd5b9050610f2591995060a03d8111610f31575b610f1d81836135b2565b810190614937565b509a925050988b610b86565b503d610f13565b7f198e4df8935ddeb51216889b25f18eedd57c0be3d9b3ce2bb11dee36fc1e61926060604051898152601e8a8201527f44656661756c74696e6720746f20312e30782073706c697420726174696f00006040820152a288610b32565b87610fb660405192839262461bcd60e51b8452600484015260248301906133ea565b0390fd5b95610b09565b60405162461bcd60e51b8152600481018890526013602482015272546f6f206561726c7920746f20736574746c6560681b6044820152606490fd5b60405162461bcd60e51b8152600481018590526016602482015275141bdb1a58de48185b1c9958591e481cd95d1d1b195960521b6044820152606490fd5b3461044e57600036600319011261044e576020600954604051908152f35b3461044e57602036600319011261044e57600435600052600e602052610140604060002060ff60018060a01b03825416916001810154906002810154600382015460048301546005840154916006850154936008600787015496015496604051998a5260208a015260408901526060880152608087015260a086015260c085015260e0840152818116151561010084015260081c161515610120820152f35b3461044e57606036600319011261044e576004356024356044356001600160401b03811161044e5761112c9036906004016134a8565b90916111366136db565b801515806111fe575b156111be576111b37f466a123d06c1e68c575d6349c0ec02d5cfa2ddac23f8dcd71e391389dc895953938560005260126020528260406000205560136020526040600020600160ff198254161790556014602052426040600020556040519384938452606060208501526060840191614fdc565b4260408301520390a2005b60405162461bcd60e51b815260206004820152601860248201527753706c697420726174696f206f7574206f662072616e676560401b6044820152606490fd5b5061c35081111561113f565b3461044e57608036600319011261044e57611223614407565b61123260ff601d541615614308565b60043515158061156a575b611246906148a1565b6101f460243514801561155d575b61125d906148e0565b600460643511611523576005611277602435600435613d76565b04801561151b575b6040516323b872dd60e01b81526020818061129f853033600485016143a2565b038160007f00000000000000000000000000000000000000000000000000000000000000006001600160a01b03165af18015610def576112e7916000916114fc575b506143c4565b6112f0816150d1565b604051633fabe5a360e21b815260a0816004817f00000000000000000000000000000000000000000000000000000000000000006001600160a01b03165afa908115610def576020926114b9926000926000916114c9575b506201518061136661136c9261136060008713614969565b42613f27565b106149ac565b600080516020615799833981519152600d5493849361138a85613f18565b600d5561148260405161139c8161352a565b3381526004358982015260243560408201528560608201524260808201528260a082015260443560c082015260643560e0820152600061010082015261012081016000815287600052600e8a5261146b6101006008604060002060018060a01b0386511660018060a01b03198254161781558d860151600182015560408601516002820155606086015160038201556080860151600482015560a0860151600582015560c0860151600682015560e08601516007820155019301511515839060ff801983541691151516179055565b51815461ff00191690151560081b61ff0016179055565b611490600435600954613ddb565b60095561149d85336149f1565b6040519182913395606435916044359160243560043587613694565b0390a36001600755604051908152f35b611366935061136c91506114ee620151809160a03d8111610f3157610f1d81836135b2565b509692505094925050611348565b611515915060203d602011610de857610dda81836135b2565b836112e1565b50600161127f565b60405162461bcd60e51b815260206004820152601260248201527119d85c11185e481b5d5cdd081899480c0b4d60721b6044820152606490fd5b506024356103e814611254565b50640ba43b7400600435111561123d565b3461044e57600036600319011261044e576020600d54604051908152f35b3461044e57602036600319011261044e576115b5600435613b79565b5060006040516115c481613561565b526109586040516115d481613561565b600081526040519182916020835260208301906133ea565b3461044e57602036600319011261044e5760043560155481101561044e576116156080916136bc565b5060018060a01b038154169060018101549060ff6003600283015492015416916040519384526020840152604083015215156060820152f35b3461044e57600036600319011261044e576020600b54604051908152f35b3461044e57600036600319011261044e57602060405161012c8152f35b3461044e57600036600319011261044e5760206040516104388152f35b3461044e57600036600319011261044e57600854801561170157600954612710908181029181830414901517156106d257816116e191613bb4565b905b61095860095492600a54600b5490600d549260405196879687613694565b6000906116e3565b3461044e57608036600319011261044e5761172261342a565b61172a613440565b606435916001600160401b03831161044e573660238401121561044e5761175e61176893369060248160040135910161365d565b9160443591613a24565b005b3461044e57606036600319011261044e5761179361178661342a565b6044359060243590613f67565b604051921515835260606020840181905283926117b2918401906133ea565b9060408301520390f35b3461044e5760208060031936011261044e57600435906117da614407565b6117e960ff601d541615614308565b6117f4821515614349565b6040516323b872dd60e01b8152818180611813863033600485016143a2565b038160007f00000000000000000000000000000000000000000000000000000000000000006001600160a01b03165af18015610def5761185a916000916118bc57506143c4565b33600052600c81526040600020611872838254613ddb565b905561188082600854613ddb565b60085560405191825242908201527f1449c6dd7851abc30abf37f57715f492010519147cc2652fbc38202c18a6ee9060403392a26106b561520f565b6118d39150833d8511610de857610dda81836135b2565b846112e1565b3461044e57604036600319011261044e576118f261342a565b6001600160a01b031660009081526016602052604090208054602435919082101561044e5760209161192391613614565b90546040519160031b1c8152f35b3461044e57604036600319011261044e5761194a61342a565b602435908115159081830361044e576001600160a01b03169182156119c6576119989033600052600560205260406000208460005260205260406000209060ff801983541691151516179055565b6040519081527f17307eab39ab6107e8899845ad3d59bd9653f200f220920489ca2b5937696c3160203392a3005b604051630b61174360e31b815260048101849052602490fd5b3461044e57600036600319011261044e576020600a54604051908152f35b3461044e57602036600319011261044e57611a16614407565b6106b560043561442a565b3461044e57600036600319011261044e57602060405160058152f35b3461044e57600036600319011261044e57611a566136db565b60ff601b541615611a9557611a69615014565b7f9ee3c8ccbdcf30c4bfae0bd8010eb783f5d7fab7d18d5fb62924782db848544a6020604051428152a1005b60405162461bcd60e51b81526020600482015260116024820152704e6f2070656e64696e67206368616e676560781b6044820152606490fd5b3461044e57602036600319011261044e5760206107036004356154b9565b3461044e57600036600319011261044e57602060405160048152f35b3461044e57600036600319011261044e576020601754604051908152f35b3461044e57600036600319011261044e5760405160009060018054611b4a816134d5565b80845290828116908115611bc35750600114611b85575b61095883611b71818703826135b2565b6040519182916020835260208301906133ea565b92508060005260209283600020916000925b828410611bb057505050810190910190611b7181611b61565b8054858501870152928501928101611b97565b6109589550611b7193506020915091849260ff191682840152151560051b8201019350611b61565b3461044e57600036600319011261044e576020611c0742615459565b611c10816154b9565b4210611c1e57604051908152f35b610703565b3461044e57600036600319011261044e5760206040516202a3008152f35b3461044e5760208060031936011261044e57600435906001600160401b0380831161044e573660238401121561044e57826004013590811161044e57600560243683831b860182011161044e57611c97836150a6565b94611ca560405196876135b2565b838652601f19611cb4856150a6565b018560005b828110611e225750505060005b848110611d7457604080518781528851818901819052898901928201908960005b828110611cf45784840385f35b855180516001600160a01b03168552808301518584015260408082015190860152606080820151908601526080808201519086015260a0808201519086015260c0808201519086015260e0808201519086015261010080820151151590860152610120908101511515908501529481019461014090930192600101611ce7565b8083611e1d92861b84010135600052600e8752604060002060405190611d998261352a565b80546001600160a01b031682526001810154898301526002810154604083015260038101546060830152600481015460808301528681015460a0830152600681015460c0830152600781015460e083015260089081015460ff8082161515610100850152911c161515610120820152611e12828a6150bd565b5261083781896150bd565b611cc6565b604051611e2e8161352a565b60008152600083820152600060408201526000606082015260006080820152600060a0820152600060c0820152600060e08201526000610100820152600061012082015282828b010152018690611cb9565b3461044e57600036600319011261044e576006546040516001600160a01b039091168152602090f35b3461044e57602036600319011261044e576020610703600435615459565b3461044e57600036600319011261044e576040517f00000000000000000000000000000000000000000000000000000000000000006001600160a01b03168152602090f35b3461044e57602036600319011261044e576001600160a01b03611f2d61342a565b16600052600c6020526020604060002054604051908152f35b3461044e57600036600319011261044e57602060405160c88152f35b3461044e57600036600319011261044e57611f7b6136db565b600160ff19601d541617601d55337f62e78cea01bee320cd4e420270b5ea74000d11b0c9f74754ebdbfc544b05a258600080a2005b3461044e57600036600319011261044e576020600854604051908152f35b3461044e576020610703611fe1366133d4565b906155d5565b3461044e57602036600319011261044e5760043560005260146020526020604060002054604051908152f35b3461044e57602036600319011261044e5760043560005260126020526020604060002054604051908152f35b3461044e57600036600319011261044e5760206040516107088152f35b3461044e57602061070361206f366133d4565b90615672565b3461044e57600036600319011261044e5761208e6136db565b600680546001600160a01b031981169091556000906001600160a01b03167f8be0079c531659141344cd1fd0a4f28419497f9722a3daafe3b4186f6b6457e08280a3005b3461044e57602036600319011261044e576001600160a01b036120f361342a565b1680156121125760005260036020526020604060002054604051908152f35b6040516322718ad960e21b815260006004820152602490fd5b3461044e57602036600319011261044e576020610703600435613bd4565b3461044e57606036600319011261044e5760043560243560443561216b614407565b61217a60ff601d541615614308565b821515806123e6575b61218c906148a1565b6101f4821480156123db575b6121a1906148e0565b6001811480156123d1575b80156123c7575b15612387576121e76121c58385613d76565b60006004840361236957506127106121e06101905b83613c46565b0490613f27565b906121f28183613c46565b6040516323b872dd60e01b81526020959080612213843033600485016143a2565b6001600160a01b03918991849190038160007f000000000000000000000000000000000000000000000000000000000000000086165af1908115610def57612266899260069460009161234c57506143c4565b61226f856150d1565b600f5497889761227e89613f18565b600f5561228a42615459565b916040519661229888613546565b33885285880190815260408801918252606088019283526080880193845260a08801948a8652601060c08a0197600089528d60005252604060002098511660018060a01b031989541617885551600188015551600287015551600386015551600485015551600584015551910155604051918252848201527f2bdfae17037529a2e65ec70b13ee84e9aa324112f93c1598ff55cafc6b84df0860403392a361233f81614c1a565b6001600755604051908152f35b6123639150843d8611610de857610dda81836135b2565b8b6112e1565b6008841461237e575b6121e0612710916121da565b506103e8612372565b60405162461bcd60e51b81526020600482015260186024820152774d75737420626520312c20342c206f722038207765656b7360401b6044820152606490fd5b50600881146121b3565b50600481146121ac565b506103e88214612198565b50640ba43b7400831115612183565b6135f7565b3461044e57602036600319011261044e576020612418600435613b79565b6040516001600160a01b039091168152f35b3461044e57600036600319011261044e57601d5460405160089190911c6001600160a01b03168152602090f35b3461044e57612465366133d4565b9061246e614407565b61247d60ff601d541615614308565b80151580612728575b61248f906148a1565b6101f48214801561271d575b6124a4906148e0565b6124ad42615459565b916124b88183613d76565b916040516323b872dd60e01b8152602081806124d9873033600485016143a2565b038160007f00000000000000000000000000000000000000000000000000000000000000006001600160a01b03165af18015610def57612520916000916126fe57506143c4565b612529836150d1565b604051633fabe5a360e21b81529360a0856004817f00000000000000000000000000000000000000000000000000000000000000006001600160a01b03165afa948515610def576020956000916000916126cb575b50620151806113666125969261136060008613614969565b600d549485946125a586613f18565b600d556126716040516125b78161352a565b3381528761146b60088c8401938a8552604081018781528a606083018a81526080840142815260a08501918d835260c0860193845260e08601946004865261010087019a60008c5261012088019a60008c526000526020600e905260406000209760018060a01b0390511660018060a01b03198954161788555160018801555160028701555160038601555160048501555160058401555160068301555160078201550192511515839060ff801983541691151516179055565b61267d85600954613ddb565b60095561268a86336149f1565b60405194855287850152604084015260608301526080820152600460a082015260008051602061579983398151915260c03392a36001600755604051908152f35b611366925061259691506126f0620151809160a03d8111610f3157610f1d81836135b2565b50959250509392505061257e565b612717915060203d602011610de857610dda81836135b2565b866112e1565b506103e8821461249b565b50640ba43b7400811115612486565b3461044e57600036600319011261044e57602060ff601d54166040519015158152f35b3461044e57600036600319011261044e576020601854604051908152f35b3461044e57600036600319011261044e57602060405160088152f35b3461044e57602036600319011261044e576004356000526013602052602060ff604060002054166040519015158152f35b3461044e57600036600319011261044e576127de6136db565b60ff601b54161561287257601a544210612836577fe59c68d9bc0005f63f7c64e755d25adbe94b71eee3f9af06975de470cb2db2676040601854601954601855612826615014565b60185482519182526020820152a1005b60405162461bcd60e51b8152602060048201526014602482015273151a5b595b1bd8dac81b9bdd08195b185c1cd95960621b6044820152606490fd5b60405162461bcd60e51b815260206004820152601c60248201527f4e6f2070656e64696e6720766f6c6174696c697479206368616e6765000000006044820152606490fd5b3461044e57602036600319011261044e576020610703600435613c59565b3461044e57600036600319011261044e576020604051603c8152f35b3461044e57602036600319011261044e5760043561290d614407565b6015908154811015612a4657612922816136bc565b5080546001600160a01b03163303612a0e5760038091019283549160ff928381166129d55760ff19166001908117909555845b612994575b5050506040519081524260208201527f609802616efe88a6b73a266ced98c5dfd07c25e64549e620527605107ea30e8160403392a2600755005b846017805484548110806129c0575b156129b8576129b190613f18565b9055612955565b50505061295a565b5085846129cc836136bc565b500154166129a3565b60405162461bcd60e51b8152602060048201526011602482015270105b1c9958591e481c1c9bd8d95cdcd959607a1b6044820152606490fd5b60405162461bcd60e51b815260206004820152601060248201526f139bdd081e5bdd5c881c995c5d595cdd60821b6044820152606490fd5b60405162461bcd60e51b8152602060048201526012602482015271125b9d985b1a59081c995c5d595cdd08125160721b6044820152606490fd5b3461044e57600036600319011261044e5760175460155490600080825b848110612adb57509061095891600854600954808211600014612ad157612ac391613f27565b915b604051958695866135d3565b5050600091612ac5565b60ff6003612ae8836136bc565b5001541615612b00575b612afb90613f18565b612a9d565b9091612b26612b11612afb92613f18565b936001612b1d856136bc565b50015490613ddb565b919050612af2565b3461044e57600036600319011261044e57601954601a5460ff601b541691604051600093601c54612b5e816134d5565b808452600191808316908115612c095750600114612baf575b5050612b8a8261095894959603836135b2565b60405194859485526020850152151560408401526080606084015260808301906133ea565b601c600090815260209750917f0e4562a10381dec21b205ed72637e6b1b523bdd0e4d4d50af5cd23dd4500a2115b828410612bf657505050820190940193612b8a82612b77565b80548685018a0152928801928101612bdd565b60ff191660208681019190915291151560051b85019091019650612b8a9150839050612b77565b3461044e57611768612c4136613473565b9060405192612c4f84613561565b60008452613a24565b3461044e57600036600319011261044e57612c716136db565b60ff19601d5416601d55337f5db9ee0a495bf2e6ff9c91a7834c1ba4fdd244a5e8aa4e537bd38aeae4b073aa600080a2005b3461044e57604036600319011261044e576004356001600160401b0360243581811161044e57612cd79036906004016134a8565b612ce29391936136db565b6103e882101580612f5b575b15612f1957601b549260ff8416612edb57620151804201908142116106d25760405194612d1a8661350f565b8486526020958681019184835260ff60408301600194858252612d3f8c8a369161365d565b948560608201525160195551601a55511515169060ff191617601b558051928311612ec557612d6f601c546134d5565b601f8111612e89575b508690601f8411600114612dfa5792807fb98a2b75956d2bec9cb0dbda629236895481f5570f87a47f6fb24ba3ed1fb8ed9995938193612dea9896600094612def575b50501b916000199060031b1c191617601c555b6040519586958652850152606060408501526060840191614fdc565b0390a1005b015192508b80612dbb565b90601f93929319831691601c600052886000209260005b818110612e74575091612dea97959391857fb98a2b75956d2bec9cb0dbda629236895481f5570f87a47f6fb24ba3ed1fb8ed9c98969410612e5b575b505050811b01601c55612dce565b015160001960f88460031b161c19169055898080612e4d565b82840151855593860193928a01928a01612e11565b612eb590601c60005288600020601f860160051c8101918a8710612ebb575b601f0160051c0190614ffd565b88612d78565b9091508190612ea8565b634e487b7160e01b600052604160045260246000fd5b60405162461bcd60e51b81526020600482015260166024820152754368616e676520616c72656164792070656e64696e6760501b6044820152606490fd5b60405162461bcd60e51b815260206004820152601a602482015279566f6c6174696c697479206d7573742062652031302d3135302560301b6044820152606490fd5b50613a98821115612cee565b3461044e57600036600319011261044e576020604051611e148152f35b3461044e57602036600319011261044e576117686004356146ba565b3461044e57602036600319011261044e57600435600052601060205260e0604060002060018060a01b0381541690600181015490600281015460038201546004830154916006600585015494015494604051968752602087015260408601526060850152608084015260a083015260c0820152f35b3461044e57600036600319011261044e5760206040516113888152f35b3461044e57600036600319011261044e576040517f00000000000000000000000000000000000000000000000000000000000000006001600160a01b03168152602090f35b3461044e5761176861308836613473565b91613707565b3461044e57600036600319011261044e5760206040516101908152f35b3461044e57600036600319011261044e57602060405160018152f35b3461044e57602036600319011261044e5762093a806004358181029181159183041417156106d257635ff5bce8908082018092116106d257635ffb02e881018092116106d257635ffc2a3881018092116106d257635ffb5e50019081116106d257602090604051908152f35b3461044e57602036600319011261044e5760043560005260116020526020604060002054604051908152f35b3461044e57602036600319011261044e5760206107036009546008549060043590615709565b3461044e57604036600319011261044e5761319e61342a565b6024356131aa81613b79565b33151580613259575b8061322c575b613214576001600160a01b039283169282918491167f8c5be1e5ebec7d5bd14f71427d1e84f3dd0314c0f7b2291e5b200ac8c7c3b925600080a4600090815260046020526040902080546001600160a01b0319169091179055005b60405163a9fbf51f60e01b8152336004820152602490fd5b5060018060a01b038116600052600560205260406000203360005260205260ff60406000205416156131b9565b506001600160a01b0381163314156131b3565b3461044e57602036600319011261044e5760043561328981613b79565b506000526004602052602060018060a01b0360406000205416604051908152f35b3461044e57600036600319011261044e576040516000906000546132cd816134d5565b808352600191808316908115611bc357506001146132f55761095883611b71818703826135b2565b600080805260209450917f290decd9548b62a8d60345a988386fc84ba6bc95484008f6362f93160ef3e5635b82841061333a57505050810190910190611b7181611b61565b8054858501870152928501928101613321565b3461044e57602036600319011261044e5760043563ffffffff60e01b811680910361044e576020906380ac58cd60e01b81149081156133aa575b8115613399575b506040519015158152f35b6301ffc9a760e01b1490508261338e565b635b5e139f60e01b81149150613387565b3461044e5760206107036133ce366133d4565b90613d76565b604090600319011261044e576004359060243590565b919082519283825260005b848110613416575050826000602080949584010152601f8019910116010190565b6020818301810151848301820152016133f5565b600435906001600160a01b038216820361044e57565b602435906001600160a01b038216820361044e57565b3461044e57600036600319011261044e5760206040516101f48152f35b606090600319011261044e576001600160a01b0390600435828116810361044e5791602435908116810361044e579060443590565b9181601f8401121561044e578235916001600160401b03831161044e576020838186019501011161044e57565b90600182811c92168015613505575b60208310146134ef57565b634e487b7160e01b600052602260045260246000fd5b91607f16916134e4565b608081019081106001600160401b03821117612ec557604052565b61014081019081106001600160401b03821117612ec557604052565b60e081019081106001600160401b03821117612ec557604052565b602081019081106001600160401b03821117612ec557604052565b604081019081106001600160401b03821117612ec557604052565b606081019081106001600160401b03821117612ec557604052565b90601f801991011681019081106001600160401b03821117612ec557604052565b9192608093969594919660a084019784526020840152604083015260608201520152565b3461044e57600036600319011261044e5760206040516103e88152f35b805482101561362c5760005260206000200190600090565b634e487b7160e01b600052603260045260246000fd5b6001600160401b038111612ec557601f01601f191660200190565b92919261366982613642565b9161367760405193846135b2565b82948184528183011161044e578281602093846000960137010152565b9260a094919796959260c0850198855260208501526040840152606083015260808201520152565b60155481101561362c57601560005260206000209060021b0190600090565b6006546001600160a01b031633036136ef57565b60405163118cdaa760e01b8152336004820152602490fd5b6001600160a01b039182169290918315613a0b57600092828452826020956002875260409684888820541680151580613a03575b6138aa575b508287526002815284888820541696879133151580613813575b509060027fddf252ad1be2c89b69c2b068fc378daa952ba7f163c4a11628f55a4df523b3ef92846137e0575b858352600381528b8320805460010190558683525289812080546001600160a01b0319168517905580a416928383036137bf5750505050565b6064945051926364283d7b60e01b8452600484015260248301526044820152fd5b600087815260046020526040902080546001600160a01b0319169055848352600381528b83208054600019019055613786565b91939450915080613869575b1561382f5785929187913861375a565b87868861384c576024915190637e27328960e01b82526004820152fd5b905163177e802f60e01b8152908190610fb6903360048401614fc1565b50338714801561388e575b8061381f575085825260048152338589842054161461381f565b5086825260058152878220338352815260ff8883205416613874565b90919250600e8252600388882001546101f4908181029181830414901517156139ef57906127108794939204806138e2575b50613740565b909192935088516323b872dd60e01b8152838180613905853088600485016143a2565b03818c8b7f0000000000000000000000000000000000000000000000000000000000000000165af19081156139e55789916139c8575b501561398657928291877f3834b478d99045a71a95707a272f4ccf4934fe415dc5716d0a4132f44f84d8c48395876139768499600a54613ddb565b600a558d51908152a438806138dc565b885162461bcd60e51b815260048101849052601b60248201527a151c985b9cd9995c88199959481c185e5b595b9d0819985a5b1959602a1b6044820152606490fd5b6139df9150843d8611610de857610dda81836135b2565b3861393b565b8a513d8b823e3d90fd5b634e487b7160e01b88526011600452602488fd5b50600161373b565b604051633250574960e11b815260006004820152602490fd5b929092613a32838583613707565b833b613a3f575b50505050565b604051630a85bd0160e11b8082523360048301526001600160a01b0392831660248301526044820194909452608060648201529493169260209290918590613a8b9060848301906133ea565b039483816000978189895af1869181613b35575b50613b00575050503d600014613af7573d613ab981613642565b90613ac760405192836135b2565b81528093823d92013e5b82519283613af257604051633250574960e11b815260048101849052602490fd5b019050fd5b60609250613ad1565b919450915063ffffffff60e01b1603613b1d575038808080613a39565b60249060405190633250574960e11b82526004820152fd5b9091508481813d8311613b72575b613b4d81836135b2565b81010312613b6e57516001600160e01b031981168103613b6e579038613a9f565b8680fd5b503d613b43565b6000818152600260205260409020546001600160a01b0316908115613b9c575090565b60249060405190637e27328960e01b82526004820152fd5b8115613bbe570490565b634e487b7160e01b600052601260045260246000fd5b6101f48114613c28576103e814613c235760405162461bcd60e51b815260206004820152601660248201527524b73b30b634b2103a343932b9b437b632103a34b2b960511b6044820152606490fd5b603c90565b5061043890565b90612710918281029281840414901517156106d257565b818102929181159184041417156106d257565b801590811580613d67575b15613d285761043880820290828204148317156106d257613cb56305f5e10091613cb0613c976009548660085491615709565b612710611388613ca8601854613c2f565b049304613c46565b613c46565b04916103e88204808410613d215750605f8202918204605f1417156106d257606490048111613ce15790565b60405162461bcd60e51b8152602060048201526018602482015277141bdbdb081b1a5c5d5a591a5d1e48195e1a185d5cdd195960421b6044820152606490fd5b9250505090565b60405162461bcd60e51b8152602060048201526017602482015276125b9d985b1a590818dbdd995c9859d948185b5bdd5b9d604a1b6044820152606490fd5b50640ba43b7400811115613c64565b801591821580613dcc575b15613d2857613cb5612710613da3613d9d6305f5e10094613bd4565b85613c46565b04613cb0613db76009548660085491615709565b611388613dc5601854613c2f565b0492613c46565b50640ba43b7400821115613d81565b919082018092116106d257565b600091818352601360205260409160ff8385205416613ecc57613e0a906154b9565b6202a3008101809111613eb857421015613e6a5782916968206661696c7361666560b01b815191613e3a83613597565b602a83527f4177616974696e6720677561726469616e20617070726f76616c206f72203438602084015282015290565b81516001935061271092650ce40625c60f60d31b90613e8883613597565b602683527f4661696c736166653a203438682074696d656f75742c2064656661756c74696e602084015282015290565b634e487b7160e01b84526011600452602484fd5b5091819060126020522054918215613f0e575b6001929151613eed8161357c565b601181527011dd585c991a585b88185c1c1c9bdd9959607a1b602082015290565b6127109250613edf565b60001981146106d25760010190565b919082039182116106d257565b6008548015613f615760095490612710918281029281840414901517156106d257613f5e91613bb4565b90565b50600090565b9290919260ff601d54166142d357821561429957640ba43b74008311614258576101f48414158061424c575b6141f6576040938451936204840360e21b8552600485015260248401526020908184604481305afa600094816141c7575b5061401557509091506374616c6560e01b6000937f50726963696e67206661696c6564202d206f7261636c65206d6179206265207381519361400585613597565b6024855284015282015290600090565b84516370a0823160e01b81526001600160a01b0391821660048201819052917f000000000000000000000000000000000000000000000000000000000000000016908381602481855afa9283156141bc57849160009461418a575b506044885180948193636eb1769f60e11b835260048301523060248301525afa801561417f57859160009161414c575b509080921061411457106140dc5770526561647920746f20707572636861736560781b60019451916140d18361357c565b601183528201529190565b7a496e73756666696369656e74205553444320616c6c6f77616e636560281b60009451916141098361357c565b601b83528201529190565b505078496e73756666696369656e7420555344432062616c616e636560381b60009451916141418361357c565b601983528201529190565b91508382813d8311614178575b61416381836135b2565b810103126141755750518490816140a0565b80fd5b503d614159565b86513d6000823e3d90fd5b9182819592953d83116141b5575b6141a281836135b2565b8101031261417557508390519238614070565b503d614198565b87513d6000823e3d90fd5b90948382813d83116141ef575b6141de81836135b2565b810103126141755750519338613fc4565b503d6141d4565b5091505060009060405161420981613597565b602a81527f5468726573686f6c64206d757374206265202d3525202835303029206f72202d6020820152693130252028313030302960b01b604082015290600090565b506103e8841415613f93565b5091505060009060405161426b8161357c565b601b81527a45786365656473206d617820636f76657261676520282435306b2960281b602082015290600090565b509150506000906040516142ac8161357c565b60148152730436f766572616765206d757374206265203e20360641b602082015290600090565b509150506000906040516142e68161357c565b600f81526e10dbdb9d1c9858dd081c185d5cd959608a1b602082015290600090565b1561430f57565b60405162461bcd60e51b815260206004820152601260248201527110dbdb9d1c9858dd081a5cc81c185d5cd95960721b6044820152606490fd5b1561435057565b60405162461bcd60e51b81526020600482015260126024820152710416d6f756e74206d757374206265203e20360741b6044820152606490fd5b9081602091031261044e5751801515810361044e5790565b6001600160a01b03918216815291166020820152604081019190915260600190565b156143cb57565b60405162461bcd60e51b81526020600482015260146024820152731554d110c81d1c985b9cd9995c8819985a5b195960621b6044820152606490fd5b600260075414614418576002600755565b604051633ee5aeb560e01b8152600490fd5b614435811515614349565b6000338152600c6020526040828183205410614663576008546009548082111561465b5761446291613f27565b83111561461957601554928151916144798361350f565b338352602083018281528184014281526060850190868252600160401b928389101561460557600189016015556144af896136bc565b9790976145f1575187546001600160a01b039091166001600160a01b0319909116178755516001870155516002860155516003948501805460ff191691151560ff1691909117905533855260166020528185208054918210156145dd579061451c91600182018155613614565b815490851b9087821b91600019901b191617905583926017545b8681106145a457505062049d409384840294848604148415171561459057507f845ed4d352e41b41a9c6723beff8483294c7b130efd9f8899246b72cd66896c393929161458b915193849333974293866135d3565b0390a2565b634e487b7160e01b81526011600452602490fd5b60ff826145b0836136bc565b50015416156145c8575b6145c390613f18565b614536565b936145d56145c391613f18565b9490506145ba565b634e487b7160e01b86526041600452602486fd5b634e487b7160e01b89526004899052602489fd5b634e487b7160e01b88526041600452602488fd5b906146248333615364565b8151928352602083015242908201527fbe1e8e357f01b865f7bbd4055ed6fbaf1e3029820a3051bc7157277b813022b960603392a2565b505081614462565b5162461bcd60e51b815260206004820152601b60248201527a496e73756666696369656e74207374616b65722062616c616e636560281b6044820152606490fd5b6040919493926060820195825260208201520152565b80151580614896575b156148595760085460095460009181811115614851576146e39250613f27565b915b821561484c579160009260178054925b601554841080614843575b8061483a575b1561481b57614714846136bc565b5093600385019160ff8354166147f357600195868101918254948186116147c157614769916147639161475160018060a01b039889875416615364565b805460ff19168b179055845490613f27565b99613f18565b9683018084116106d2576147ba947fbe1e8e357f01b865f7bbd4055ed6fbaf1e3029820a3051bc7157277b813022b9926147b292885554169254604051918291864291846146a4565b0390a2613f18565b92946146f5565b5096505050505060008051602061577983398151915293506147ee909491945b54604051938493846146a4565b0390a1565b9694506147ba9150825480821461480a5750613f18565b61481390613f18565b835538610837565b925060008051602061577983398151915293506147ee909491946147e1565b50801515614706565b50848610614700565b915050565b5050916146e5565b60405162461bcd60e51b8152602060048201526015602482015274141c9bd8d95cdcc80c4b4d4c081c195c8818d85b1b605a1b6044820152606490fd5b5060328111156146c3565b156148a857565b60405162461bcd60e51b815260206004820152601060248201526f496e76616c696420636f76657261676560801b6044820152606490fd5b156148e757565b60405162461bcd60e51b8152602060048201526011602482015270125b9d985b1a59081d1a1c995cda1bdb19607a1b6044820152606490fd5b519069ffffffffffffffffffff8216820361044e57565b908160a091031261044e5761494b81614920565b91602082015191604081015191613f5e608060608401519301614920565b1561497057565b60405162461bcd60e51b8152602060048201526014602482015273496e76616c6964206f7261636c6520707269636560601b6044820152606490fd5b156149b357565b60405162461bcd60e51b81526020600482015260166024820152754f7261636c6520707269636520746f6f207374616c6560501b6044820152606490fd5b6001600160a01b039081168015613a0b576000928084526020916002835260409380858720541680151580614c12575b614add575b5082865260028452848620541660028115159485614aaa575b83885260038152868820805460010190558488525284862080546001600160a01b031916831790557fddf252ad1be2c89b69c2b068fc378daa952ba7f163c4a11628f55a4df523b3ef8680a4614a93575050565b6024925051906339e3563760e11b82526004820152fd5b600085815260046020526040902080546001600160a01b0319169055828852600381528688208054600019019055614a3f565b600e8552600386882001546101f4908181029181830414901517156139ef57612710900480614b0d575b50614a26565b86516323b872dd60e01b8152868180614b2b853088600485016143a2565b03818c887f0000000000000000000000000000000000000000000000000000000000000000165af1908115614c08578991614beb575b5015614ba95790847f3834b478d99045a71a95707a272f4ccf4934fe415dc5716d0a4132f44f84d8c48784614b998896600a54613ddb565b600a558a51908152a43880614b07565b865162461bcd60e51b815260048101879052601b60248201527a151c985b9cd9995c88199959481c185e5b595b9d0819985a5b1959602a1b6044820152606490fd5b614c029150873d8911610de857610dda81836135b2565b38614b61565b88513d8b823e3d90fd5b506001614a21565b80600052601060205260406000209060058201548015614f7e57600581029081046005036106d257600683015490811015614f3f57614c6160048401546005830490613ddb565b92614c6f6005830685615523565b4210614eef57604051633fabe5a360e21b81529360a0856004817f00000000000000000000000000000000000000000000000000000000000000006001600160a01b03165afa8015610def57600095600091614e9f575b506005926000805160206157998339815191529492614cf562015180611366614e9a9561136060008d13614969565b600d5497614d0289613f18565b600d55888660038501540498614dfb60018060a01b03865416600187015460028801549060405192614d338461352a565b8352602083015260408201528b60608201524260808201528460a08201528560c082015289890660e0820152600061010082015261012081016000815284600052600e60205261146b6101006008604060002060018060a01b0386511660018060a01b03198254161781556020860151600182015560408601516002820155606086015160038201556080860151600482015560a08601518f82015560c0860151600682015560e08601516007820155019301511515839060ff801983541691151516179055565b614e0b6001860154600954613ddb565b60095581600052601160205280604060002055614e2b6006860154613f18565b60068601558454614e469083906001600160a01b03166149f1565b7f88a85d5f69f75f3a2033d31539b35353cc871752769fc952db1572571af59886604080518681528a8a066020820152a360018060a01b038354169760026001850154940154604051978897069487613694565b0390a3565b6113669650614e9a9150926000805160206157998339815191529492614cf562015180614edb60059760a03d8111610f3157610f1d81836135b2565b509c9250509a955050505092945092614cc6565b60405162461bcd60e51b815260206004820152602260248201527f4d61726b6574206e6f7420636c6f7365642079657420666f7220746869732067604482015261061760f41b6064820152608490fd5b60405162461bcd60e51b8152602060048201526017602482015276105b1b0819d85c1cc8185b1c9958591e481b5a5b9d1959604a1b6044820152606490fd5b60405162461bcd60e51b815260206004820152601b60248201527a14dd589cd8dc9a5c1d1a5bdb88191bd95cc81b9bdd08195e1a5cdd602a1b6044820152606490fd5b6001600160a01b039091168152602081019190915260400190565b908060209392818452848401376000828201840152601f01601f1916010190565b818110615008575050565b60008155600101614ffd565b60008060195580601a5580601b5561502d601c546134d5565b80615036575050565b601f81116001146150475750601c55565b601c82527f0e4562a10381dec21b205ed72637e6b1b523bdd0e4d4d50af5cd23dd4500a2119061509f90601f0160051c82017f0e4562a10381dec21b205ed72637e6b1b523bdd0e4d4d50af5cd23dd4500a212614ffd565b81601c5555565b6001600160401b038111612ec55760051b60200190565b805182101561362c5760209160051b010190565b61012c808202821591838204148217156106d25761271080910492611e149283820293828504148117156106d25760c8820291820460c81417156106d2576151208261512c9404600a54613ddb565b600a5504600b54613ddb565b600b55806151375750565b601d5460405163a9059cbb60e01b81529160209183916001600160a01b03918391600091839161516f9160081c861660048401614fc1565b03927f0000000000000000000000000000000000000000000000000000000000000000165af1908115610def576000916151f1575b50156151ac57565b60405162461bcd60e51b815260206004820152601c60248201527f50726f746f636f6c20666565207472616e73666572206661696c6564000000006044820152606490fd5b615209915060203d8111610de857610dda81836135b2565b386151a4565b6008546009546000918181111561535d5761522a9250613f27565b8015801561534f575b61534c579060009060179283545b601554811080615342575b80615339575b1561533057615260816136bc565b5091600383019260ff84541661530857600193848201918254908482116152d3579161529e6152af94926152b5969460018060a01b03905416615364565b805460ff1916871790555490613f27565b94613f18565b918101908181116106d2576152cb918655613f18565b929092615241565b505050509294939150505b806152e857505050565b6147ee6000805160206157798339815191529354604051938493846146a4565b509391506152cb90855480821461531f5750613f18565b61532890613f18565b865538610837565b509092916152de565b50811515615252565b506014841061524c565b50565b506017546015541115615233565b505061522a565b6153bc9160209160018060a01b0390818116600052600c8452604060002061538d848254613f27565b905561539b83600854613f27565b600855600060405180968195829463a9059cbb60e01b845260048401614fc1565b03927f0000000000000000000000000000000000000000000000000000000000000000165af1908115610def5760009161543b575b50156153f957565b60405162461bcd60e51b815260206004820152601a60248201527915da5d1a191c985dd85b081d1c985b9cd9995c8819985a5b195960321b6044820152606490fd5b615453915060203d8111610de857610dda81836135b2565b386153f1565b635ff5bce8811061547c57635ff5bce71981019081116106d25762093a80900490565b60405162461bcd60e51b81526020600482015260156024820152744265666f7265207265666572656e6365206461746560581b6044820152606490fd5b62093a80908181029181830414901517156106d257635ff5bce89081018091116106d25790565b156154e757565b60405162461bcd60e51b815260206004820152601460248201527319185e525b99195e081b5d5cdd081899480c0b4d60621b6044820152606490fd5b90600491615533838311156154e0565b62093a80908181029181830414901517156155ab57635ff5bce8908082018092116155c057635ff4f100019081116155ab5762015180918281029281840414901517156155ab579061558491613ddb565b90620127508201809211615596575090565b601190634e487b7160e01b6000525260246000fd5b601183634e487b7160e01b6000525260246000fd5b601184634e487b7160e01b6000525260246000fd5b906004916155e5838311156154e0565b8282101561565a5762093a80908181029181830414901517156155ab57635ff5bce8908082018092116155c057635ff4f100019081116155ab57600182018092116155ab5762015180918281029281840414901517156155ab579061564991613ddb565b9061cbe88201809211615596575090565b919050600182018092116155965750613f5e906154b9565b80151580615700575b156156c15781808211156156b15761569291613f27565b905b612710918281029281840414901517156106d257613f5e91613bb4565b906156bb91613f27565b90615694565b60405162461bcd60e51b8152602060048201526017602482015276507269636573206d75737420626520706f73697469766560481b6044820152606490fd5b5081151561567b565b90821561576f5761571991613ddb565b61271091828202918083048414901517156106d25761573791613bb4565b61251c808211615767575b50614e206157508280613c46565b049060011c82018092116106d257613f5e91613ddb565b905038615742565b5050506127109056fe1ca00514b9bf4c911b52e6dabe932a971ba14609164abb78dd6edf0456bdbd3e20b1b1461c77735fa50ea23bd7b43060aeacfc95c7b50f2aed1c9a0d6c60fe50a2646970667358221220b0cfc6ed5608172b7712389fb81855410efddd94ea96fddfa9ffe704450a054664736f6c63430008140033",
  "linkReferences": {},
  "deployedLinkReferences": {}
}