{
  "_format": "hh-sol-artifact-1",
  "contractName": "HoodGap",
  "sourceName": "contracts/HoodGap.sol",
  "abi": [
    {
      "inputs": [
        {
          "internalType": "address",
          "name": "_usdc",
          "type": "address"
        },
        {
          "internalType": "address",
          "name": "_oracle",
          "type": "address"
        }
      ],
      "stateMutability": "nonpayable",
      "type": "constructor"
    },
    {
      "inputs": [
        {
          "internalType": "address",
          "name": "sender",
          "type": "address"
        },
        {
          "internalType": "uint256",
          "name": "tokenId",
          "type": "uint256"
        },
        {
          "internalType": "address",
          "name": "owner",
          "type": "address"
        }
      ],
      "name": "ERC721IncorrectOwner",
      "type": "error"
    },
    {
      "inputs": [
        {
          "internalType": "address",
          "name": "operator",
          "type": "address"
        },
        {
          "internalType": "uint256",
          "name": "tokenId",
          "type": "uint256"
        }
      ],
      "name": "ERC721InsufficientApproval",
      "type": "error"
    },
    {
      "inputs": [
        {
          "internalType": "address",
          "name": "approver",
          "type": "address"
        }
      ],
      "name": "ERC721InvalidApprover",
      "type": "error"
    },
    {
      "inputs": [
        {
          "internalType": "address",
          "name": "operator",
          "type": "address"
        }
      ],
      "name": "ERC721InvalidOperator",
      "type": "error"
    },
    {
      "inputs": [
        {
          "internalType": "address",
          "name": "owner",
          "type": "address"
        }
      ],
      "name": "ERC721InvalidOwner",
      "type": "error"
    },
    {
      "inputs": [
        {
          "internalType": "address",
          "name": "receiver",
          "type": "address"
        }
      ],
      "name": "ERC721InvalidReceiver",
      "type": "error"
    },
    {
      "inputs": [
        {
          "internalType": "address",
          "name": "sender",
          "type": "address"
        }
      ],
      "name": "ERC721InvalidSender",
      "type": "error"
    },
    {
      "inputs": [
        {
          "internalType": "uint256",
          "name": "tokenId",
          "type": "uint256"
        }
      ],
      "name": "ERC721NonexistentToken",
      "type": "error"
    },
    {
      "inputs": [
        {
          "internalType": "address",
          "name": "owner",
          "type": "address"
        }
      ],
      "name": "OwnableInvalidOwner",
      "type": "error"
    },
    {
      "inputs": [
        {
          "internalType": "address",
          "name": "account",
          "type": "address"
        }
      ],
      "name": "OwnableUnauthorizedAccount",
      "type": "error"
    },
    {
      "inputs": [],
      "name": "ReentrancyGuardReentrantCall",
      "type": "error"
    },
    {
      "anonymous": false,
      "inputs": [
        {
          "indexed": true,
          "internalType": "address",
          "name": "owner",
          "type": "address"
        },
        {
          "indexed": true,
          "internalType": "address",
          "name": "approved",
          "type": "address"
        },
        {
          "indexed": true,
          "internalType": "uint256",
          "name": "tokenId",
          "type": "uint256"
        }
      ],
      "name": "Approval",
      "type": "event"
    },
    {
      "anonymous": false,
      "inputs": [
        {
          "indexed": true,
          "internalType": "address",
          "name": "owner",
          "type": "address"
        },
        {
          "indexed": true,
          "internalType": "address",
          "name": "operator",
          "type": "address"
        },
        {
          "indexed": false,
          "internalType": "bool",
          "name": "approved",
          "type": "bool"
        }
      ],
      "name": "ApprovalForAll",
      "type": "event"
    },
    {
      "anonymous": false,
      "inputs": [
        {
          "indexed": true,
          "internalType": "address",
          "name": "usdc",
          "type": "address"
        },
        {
          "indexed": true,
          "internalType": "address",
          "name": "oracle",
          "type": "address"
        },
        {
          "indexed": true,
          "internalType": "address",
          "name": "guardian",
          "type": "address"
        }
      ],
      "name": "ContractInitialized",
      "type": "event"
    },
    {
      "anonymous": false,
      "inputs": [
        {
          "indexed": true,
          "internalType": "uint256",
          "name": "week",
          "type": "uint256"
        },
        {
          "indexed": false,
          "internalType": "string",
          "name": "reason",
          "type": "string"
        }
      ],
      "name": "FailsafeTriggered",
      "type": "event"
    },
    {
      "anonymous": false,
      "inputs": [
        {
          "indexed": true,
          "internalType": "uint256",
          "name": "week",
          "type": "uint256"
        },
        {
          "indexed": false,
          "internalType": "uint256",
          "name": "timestamp",
          "type": "uint256"
        }
      ],
      "name": "HolidayChangeCancelled",
      "type": "event"
    },
    {
      "anonymous": false,
      "inputs": [
        {
          "indexed": true,
          "internalType": "uint256",
          "name": "week",
          "type": "uint256"
        },
        {
          "indexed": false,
          "internalType": "uint256",
          "name": "multiplier",
          "type": "uint256"
        },
        {
          "indexed": false,
          "internalType": "uint256",
          "name": "executeAfter",
          "type": "uint256"
        },
        {
          "indexed": false,
          "internalType": "string",
          "name": "reason",
          "type": "string"
        }
      ],
      "name": "HolidayChangeQueued",
      "type": "event"
    },
    {
      "anonymous": false,
      "inputs": [
        {
          "indexed": true,
          "internalType": "uint256",
          "name": "week",
          "type": "uint256"
        },
        {
          "indexed": false,
          "internalType": "uint256",
          "name": "multiplier",
          "type": "uint256"
        },
        {
          "indexed": false,
          "internalType": "string",
          "name": "reason",
          "type": "string"
        }
      ],
      "name": "HolidayMultiplierSet",
      "type": "event"
    },
    {
      "anonymous": false,
      "inputs": [
        {
          "indexed": true,
          "internalType": "address",
          "name": "previousOwner",
          "type": "address"
        },
        {
          "indexed": true,
          "internalType": "address",
          "name": "newOwner",
          "type": "address"
        }
      ],
      "name": "OwnershipTransferred",
      "type": "event"
    },
    {
      "anonymous": false,
      "inputs": [
        {
          "indexed": true,
          "internalType": "address",
          "name": "by",
          "type": "address"
        }
      ],
      "name": "Paused",
      "type": "event"
    },
    {
      "anonymous": false,
      "inputs": [
        {
          "indexed": true,
          "internalType": "uint256",
          "name": "policyId",
          "type": "uint256"
        },
        {
          "indexed": true,
          "internalType": "address",
          "name": "holder",
          "type": "address"
        },
        {
          "indexed": false,
          "internalType": "uint256",
          "name": "amount",
          "type": "uint256"
        },
        {
          "indexed": false,
          "internalType": "uint256",
          "name": "gap",
          "type": "uint256"
        }
      ],
      "name": "PolicyPaidOut",
      "type": "event"
    },
    {
      "anonymous": false,
      "inputs": [
        {
          "indexed": true,
          "internalType": "address",
          "name": "buyer",
          "type": "address"
        },
        {
          "indexed": true,
          "internalType": "uint256",
          "name": "policyId",
          "type": "uint256"
        },
        {
          "indexed": false,
          "internalType": "uint256",
          "name": "coverage",
          "type": "uint256"
        },
        {
          "indexed": false,
          "internalType": "uint256",
          "name": "threshold",
          "type": "uint256"
        },
        {
          "indexed": false,
          "internalType": "uint256",
          "name": "premium",
          "type": "uint256"
        },
        {
          "indexed": false,
          "internalType": "uint256",
          "name": "fridayClose",
          "type": "uint256"
        },
        {
          "indexed": false,
          "internalType": "uint256",
          "name": "settlementWeek",
          "type": "uint256"
        }
      ],
      "name": "PolicyPurchased",
      "type": "event"
    },
    {
      "anonymous": false,
      "inputs": [
        {
          "indexed": true,
          "internalType": "uint256",
          "name": "policyId",
          "type": "uint256"
        },
        {
          "indexed": false,
          "internalType": "uint256",
          "name": "mondayPrice",
          "type": "uint256"
        },
        {
          "indexed": false,
          "internalType": "uint256",
          "name": "adjustedFriday",
          "type": "uint256"
        },
        {
          "indexed": false,
          "internalType": "uint256",
          "name": "gap",
          "type": "uint256"
        },
        {
          "indexed": false,
          "internalType": "bool",
          "name": "paidOut",
          "type": "bool"
        }
      ],
      "name": "PolicySettled",
      "type": "event"
    },
    {
      "anonymous": false,
      "inputs": [
        {
          "indexed": true,
          "internalType": "uint256",
          "name": "policyId",
          "type": "uint256"
        },
        {
          "indexed": true,
          "internalType": "address",
          "name": "from",
          "type": "address"
        },
        {
          "indexed": true,
          "internalType": "address",
          "name": "to",
          "type": "address"
        },
        {
          "indexed": false,
          "internalType": "uint256",
          "name": "fee",
          "type": "uint256"
        }
      ],
      "name": "PolicyTransferred",
      "type": "event"
    },
    {
      "anonymous": false,
      "inputs": [
        {
          "indexed": false,
          "internalType": "uint256",
          "name": "processed",
          "type": "uint256"
        },
        {
          "indexed": false,
          "internalType": "uint256",
          "name": "remainingLiquidity",
          "type": "uint256"
        },
        {
          "indexed": false,
          "internalType": "uint256",
          "name": "newQueueHead",
          "type": "uint256"
        }
      ],
      "name": "QueueProcessed",
      "type": "event"
    },
    {
      "anonymous": false,
      "inputs": [
        {
          "indexed": false,
          "internalType": "uint256",
          "name": "shortfall",
          "type": "uint256"
        },
        {
          "indexed": false,
          "internalType": "uint256",
          "name": "totalCoverage",
          "type": "uint256"
        },
        {
          "indexed": false,
          "internalType": "uint256",
          "name": "policyId",
          "type": "uint256"
        }
      ],
      "name": "ReserveUsed",
      "type": "event"
    },
    {
      "anonymous": false,
      "inputs": [
        {
          "indexed": true,
          "internalType": "uint256",
          "name": "week",
          "type": "uint256"
        },
        {
          "indexed": false,
          "internalType": "uint256",
          "name": "splitRatio",
          "type": "uint256"
        },
        {
          "indexed": false,
          "internalType": "string",
          "name": "reason",
          "type": "string"
        },
        {
          "indexed": false,
          "internalType": "uint256",
          "name": "timestamp",
          "type": "uint256"
        }
      ],
      "name": "SettlementApproved",
      "type": "event"
    },
    {
      "anonymous": false,
      "inputs": [
        {
          "indexed": true,
          "internalType": "address",
          "name": "staker",
          "type": "address"
        },
        {
          "indexed": false,
          "internalType": "uint256",
          "name": "amount",
          "type": "uint256"
        },
        {
          "indexed": false,
          "internalType": "uint256",
          "name": "timestamp",
          "type": "uint256"
        }
      ],
      "name": "Staked",
      "type": "event"
    },
    {
      "anonymous": false,
      "inputs": [
        {
          "indexed": true,
          "internalType": "address",
          "name": "owner",
          "type": "address"
        },
        {
          "indexed": true,
          "internalType": "uint256",
          "name": "subId",
          "type": "uint256"
        },
        {
          "indexed": false,
          "internalType": "uint256",
          "name": "numWeeks",
          "type": "uint256"
        },
        {
          "indexed": false,
          "internalType": "uint256",
          "name": "totalPremium",
          "type": "uint256"
        }
      ],
      "name": "SubscriptionCreated",
      "type": "event"
    },
    {
      "anonymous": false,
      "inputs": [
        {
          "indexed": true,
          "internalType": "address",
          "name": "from",
          "type": "address"
        },
        {
          "indexed": true,
          "internalType": "address",
          "name": "to",
          "type": "address"
        },
        {
          "indexed": true,
          "internalType": "uint256",
          "name": "tokenId",
          "type": "uint256"
        }
      ],
      "name": "Transfer",
      "type": "event"
    },
    {
      "anonymous": false,
      "inputs": [
        {
          "indexed": true,
          "internalType": "address",
          "name": "oldTreasury",
          "type": "address"
        },
        {
          "indexed": true,
          "internalType": "address",
          "name": "newTreasury",
          "type": "address"
        }
      ],
      "name": "TreasuryUpdated",
      "type": "event"
    },
    {
      "anonymous": false,
      "inputs": [
        {
          "indexed": true,
          "internalType": "address",
          "name": "by",
          "type": "address"
        }
      ],
      "name": "Unpaused",
      "type": "event"
    },
    {
      "anonymous": false,
      "inputs": [
        {
          "indexed": false,
          "internalType": "uint256",
          "name": "timestamp",
          "type": "uint256"
        }
      ],
      "name": "VolatilityChangeCancelled",
      "type": "event"
    },
    {
      "anonymous": false,
      "inputs": [
        {
          "indexed": false,
          "internalType": "uint256",
          "name": "newVolatility",
          "type": "uint256"
        },
        {
          "indexed": false,
          "internalType": "uint256",
          "name": "executeAfter",
          "type": "uint256"
        },
        {
          "indexed": false,
          "internalType": "string",
          "name": "reason",
          "type": "string"
        }
      ],
      "name": "VolatilityChangeQueued",
      "type": "event"
    },
    {
      "anonymous": false,
      "inputs": [
        {
          "indexed": false,
          "internalType": "uint256",
          "name": "oldVolatility",
          "type": "uint256"
        },
        {
          "indexed": false,
          "internalType": "uint256",
          "name": "newVolatility",
          "type": "uint256"
        }
      ],
      "name": "VolatilityUpdated",
      "type": "event"
    },
    {
      "anonymous": false,
      "inputs": [
        {
          "indexed": true,
          "internalType": "uint256",
          "name": "subId",
          "type": "uint256"
        },
        {
          "indexed": true,
          "internalType": "uint256",
          "name": "policyId",
          "type": "uint256"
        },
        {
          "indexed": false,
          "internalType": "uint256",
          "name": "weekNumber",
          "type": "uint256"
        }
      ],
      "name": "WeekPolicyMinted",
      "type": "event"
    },
    {
      "anonymous": false,
      "inputs": [
        {
          "indexed": true,
          "internalType": "uint256",
          "name": "week",
          "type": "uint256"
        },
        {
          "indexed": false,
          "internalType": "uint256",
          "name": "fridayClose",
          "type": "uint256"
        },
        {
          "indexed": false,
          "internalType": "uint256",
          "name": "mondayOpen",
          "type": "uint256"
        }
      ],
      "name": "WeekTimingUpdated",
      "type": "event"
    },
    {
      "anonymous": false,
      "inputs": [
        {
          "indexed": true,
          "internalType": "address",
          "name": "staker",
          "type": "address"
        },
        {
          "indexed": false,
          "internalType": "uint256",
          "name": "requestId",
          "type": "uint256"
        },
        {
          "indexed": false,
          "internalType": "uint256",
          "name": "timestamp",
          "type": "uint256"
        }
      ],
      "name": "WithdrawalCancelled",
      "type": "event"
    },
    {
      "anonymous": false,
      "inputs": [
        {
          "indexed": true,
          "internalType": "address",
          "name": "staker",
          "type": "address"
        },
        {
          "indexed": false,
          "internalType": "uint256",
          "name": "amount",
          "type": "uint256"
        },
        {
          "indexed": false,
          "internalType": "uint256",
          "name": "requestId",
          "type": "uint256"
        },
        {
          "indexed": false,
          "internalType": "uint256",
          "name": "timestamp",
          "type": "uint256"
        }
      ],
      "name": "WithdrawalProcessed",
      "type": "event"
    },
    {
      "anonymous": false,
      "inputs": [
        {
          "indexed": true,
          "internalType": "address",
          "name": "staker",
          "type": "address"
        },
        {
          "indexed": false,
          "internalType": "uint256",
          "name": "amount",
          "type": "uint256"
        },
        {
          "indexed": false,
          "internalType": "uint256",
          "name": "requestId",
          "type": "uint256"
        },
        {
          "indexed": false,
          "internalType": "uint256",
          "name": "position",
          "type": "uint256"
        },
        {
          "indexed": false,
          "internalType": "uint256",
          "name": "estimatedWait",
          "type": "uint256"
        },
        {
          "indexed": false,
          "internalType": "uint256",
          "name": "timestamp",
          "type": "uint256"
        }
      ],
      "name": "WithdrawalQueued",
      "type": "event"
    },
    {
      "inputs": [],
      "name": "AVG_VOLATILITY",
      "outputs": [
        {
          "internalType": "uint256",
          "name": "",
          "type": "uint256"
        }
      ],
      "stateMutability": "view",
      "type": "function"
    },
    {
      "inputs": [],
      "name": "BASE_RATE",
      "outputs": [
        {
          "internalType": "uint256",
          "name": "",
          "type": "uint256"
        }
      ],
      "stateMutability": "view",
      "type": "function"
    },
    {
      "inputs": [],
      "name": "FAILSAFE_DELAY",
      "outputs": [
        {
          "internalType": "uint256",
          "name": "",
          "type": "uint256"
        }
      ],
      "stateMutability": "view",
      "type": "function"
    },
    {
      "inputs": [],
      "name": "HOLIDAY_TIMELOCK",
      "outputs": [
        {
          "internalType": "uint256",
          "name": "",
          "type": "uint256"
        }
      ],
      "stateMutability": "view",
      "type": "function"
    },
    {
      "inputs": [],
      "name": "MAX_POLICY_COVERAGE",
      "outputs": [
        {
          "internalType": "uint256",
          "name": "",
          "type": "uint256"
        }
      ],
      "stateMutability": "view",
      "type": "function"
    },
    {
      "inputs": [],
      "name": "MAX_QUEUE_PROCESS",
      "outputs": [
        {
          "internalType": "uint256",
          "name": "",
          "type": "uint256"
        }
      ],
      "stateMutability": "view",
      "type": "function"
    },
    {
      "inputs": [],
      "name": "MAX_THRESHOLD",
      "outputs": [
        {
          "internalType": "uint256",
          "name": "",
          "type": "uint256"
        }
      ],
      "stateMutability": "view",
      "type": "function"
    },
    {
      "inputs": [],
      "name": "MIN_THRESHOLD",
      "outputs": [
        {
          "internalType": "uint256",
          "name": "",
          "type": "uint256"
        }
      ],
      "stateMutability": "view",
      "type": "function"
    },
    {
      "inputs": [],
      "name": "MONTHLY_DISCOUNT",
      "outputs": [
        {
          "internalType": "uint256",
          "name": "",
          "type": "uint256"
        }
      ],
      "stateMutability": "view",
      "type": "function"
    },
    {
      "inputs": [],
      "name": "MONTHLY_WEEKS",
      "outputs": [
        {
          "internalType": "uint256",
          "name": "",
          "type": "uint256"
        }
      ],
      "stateMutability": "view",
      "type": "function"
    },
    {
      "inputs": [],
      "name": "PLATFORM_FEE",
      "outputs": [
        {
          "internalType": "uint256",
          "name": "",
          "type": "uint256"
        }
      ],
      "stateMutability": "view",
      "type": "function"
    },
    {
      "inputs": [],
      "name": "REFERENCE_WEEK",
      "outputs": [
        {
          "internalType": "uint256",
          "name": "",
          "type": "uint256"
        }
      ],
      "stateMutability": "view",
      "type": "function"
    },
    {
      "inputs": [],
      "name": "RESERVE_CUT",
      "outputs": [
        {
          "internalType": "uint256",
          "name": "",
          "type": "uint256"
        }
      ],
      "stateMutability": "view",
      "type": "function"
    },
    {
      "inputs": [],
      "name": "SEASON_DISCOUNT",
      "outputs": [
        {
          "internalType": "uint256",
          "name": "",
          "type": "uint256"
        }
      ],
      "stateMutability": "view",
      "type": "function"
    },
    {
      "inputs": [],
      "name": "SEASON_WEEKS",
      "outputs": [
        {
          "internalType": "uint256",
          "name": "",
          "type": "uint256"
        }
      ],
      "stateMutability": "view",
      "type": "function"
    },
    {
      "inputs": [],
      "name": "TRANSFER_FEE_BPS",
      "outputs": [
        {
          "internalType": "uint256",
          "name": "",
          "type": "uint256"
        }
      ],
      "stateMutability": "view",
      "type": "function"
    },
    {
      "inputs": [],
      "name": "USDC",
      "outputs": [
        {
          "internalType": "contract IERC20",
          "name": "",
          "type": "address"
        }
      ],
      "stateMutability": "view",
      "type": "function"
    },
    {
      "inputs": [],
      "name": "VOLATILITY_TIMELOCK",
      "outputs": [
        {
          "internalType": "uint256",
          "name": "",
          "type": "uint256"
        }
      ],
      "stateMutability": "view",
      "type": "function"
    },
    {
      "inputs": [],
      "name": "WEEKEND_DURATION",
      "outputs": [
        {
          "internalType": "uint256",
          "name": "",
          "type": "uint256"
        }
      ],
      "stateMutability": "view",
      "type": "function"
    },
    {
      "inputs": [
        {
          "internalType": "address",
          "name": "to",
          "type": "address"
        },
        {
          "internalType": "uint256",
          "name": "tokenId",
          "type": "uint256"
        }
      ],
      "name": "approve",
      "outputs": [],
      "stateMutability": "nonpayable",
      "type": "function"
    },
    {
      "inputs": [
        {
          "internalType": "uint256",
          "name": "week",
          "type": "uint256"
        },
        {
          "internalType": "uint256",
          "name": "splitRatio",
          "type": "uint256"
        },
        {
          "internalType": "string",
          "name": "reason",
          "type": "string"
        }
      ],
      "name": "approveSettlement",
      "outputs": [],
      "stateMutability": "nonpayable",
      "type": "function"
    },
    {
      "inputs": [
        {
          "internalType": "address",
          "name": "owner",
          "type": "address"
        }
      ],
      "name": "balanceOf",
      "outputs": [
        {
          "internalType": "uint256",
          "name": "",
          "type": "uint256"
        }
      ],
      "stateMutability": "view",
      "type": "function"
    },
    {
      "inputs": [
        {
          "internalType": "uint256",
          "name": "coverage",
          "type": "uint256"
        },
        {
          "internalType": "uint256",
          "name": "threshold",
          "type": "uint256"
        }
      ],
      "name": "buyPolicy",
      "outputs": [
        {
          "internalType": "uint256",
          "name": "",
          "type": "uint256"
        }
      ],
      "stateMutability": "nonpayable",
      "type": "function"
    },
    {
      "inputs": [
        {
          "internalType": "uint256",
          "name": "coverage",
          "type": "uint256"
        },
        {
          "internalType": "uint256",
          "name": "threshold",
          "type": "uint256"
        },
        {
          "internalType": "uint256",
          "name": "numWeeks",
          "type": "uint256"
        }
      ],
      "name": "buySubscription",
      "outputs": [
        {
          "internalType": "uint256",
          "name": "",
          "type": "uint256"
        }
      ],
      "stateMutability": "nonpayable",
      "type": "function"
    },
    {
      "inputs": [
        {
          "internalType": "uint256",
          "name": "priceA",
          "type": "uint256"
        },
        {
          "internalType": "uint256",
          "name": "priceB",
          "type": "uint256"
        }
      ],
      "name": "calculateGap",
      "outputs": [
        {
          "internalType": "uint256",
          "name": "",
          "type": "uint256"
        }
      ],
      "stateMutability": "pure",
      "type": "function"
    },
    {
      "inputs": [
        {
          "internalType": "uint256",
          "name": "coverage",
          "type": "uint256"
        }
      ],
      "name": "calculatePremium",
      "outputs": [
        {
          "internalType": "uint256",
          "name": "",
          "type": "uint256"
        }
      ],
      "stateMutability": "view",
      "type": "function"
    },
    {
      "inputs": [
        {
          "internalType": "address",
          "name": "user",
          "type": "address"
        },
        {
          "internalType": "uint256",
          "name": "coverage",
          "type": "uint256"
        },
        {
          "internalType": "uint256",
          "name": "threshold",
          "type": "uint256"
        }
      ],
      "name": "canBuyPolicy",
      "outputs": [
        {
          "internalType": "bool",
          "name": "canBuy",
          "type": "bool"
        },
        {
          "internalType": "string",
          "name": "reason",
          "type": "string"
        },
        {
          "internalType": "uint256",
          "name": "estimatedPremium",
          "type": "uint256"
        }
      ],
      "stateMutability": "view",
      "type": "function"
    },
    {
      "inputs": [
        {
          "internalType": "uint256",
          "name": "week",
          "type": "uint256"
        }
      ],
      "name": "canSettle",
      "outputs": [
        {
          "internalType": "bool",
          "name": "allowed",
          "type": "bool"
        },
        {
          "internalType": "uint256",
          "name": "splitRatio",
          "type": "uint256"
        },
        {
          "internalType": "string",
          "name": "reason",
          "type": "string"
        }
      ],
      "stateMutability": "view",
      "type": "function"
    },
    {
      "inputs": [
        {
          "internalType": "uint256",
          "name": "week",
          "type": "uint256"
        }
      ],
      "name": "cancelHolidayMultiplier",
      "outputs": [],
      "stateMutability": "nonpayable",
      "type": "function"
    },
    {
      "inputs": [],
      "name": "cancelVolatilityChange",
      "outputs": [],
      "stateMutability": "nonpayable",
      "type": "function"
    },
    {
      "inputs": [
        {
          "internalType": "uint256",
          "name": "requestId",
          "type": "uint256"
        }
      ],
      "name": "cancelWithdrawalRequest",
      "outputs": [],
      "stateMutability": "nonpayable",
      "type": "function"
    },
    {
      "inputs": [],
      "name": "currentVolatility",
      "outputs": [
        {
          "internalType": "uint256",
          "name": "",
          "type": "uint256"
        }
      ],
      "stateMutability": "view",
      "type": "function"
    },
    {
      "inputs": [
        {
          "internalType": "uint256",
          "name": "week",
          "type": "uint256"
        }
      ],
      "name": "executeHolidayMultiplier",
      "outputs": [],
      "stateMutability": "nonpayable",
      "type": "function"
    },
    {
      "inputs": [],
      "name": "executeVolatilityChange",
      "outputs": [],
      "stateMutability": "nonpayable",
      "type": "function"
    },
    {
      "inputs": [],
      "name": "fridayCloseTime",
      "outputs": [
        {
          "internalType": "uint256",
          "name": "",
          "type": "uint256"
        }
      ],
      "stateMutability": "view",
      "type": "function"
    },
    {
      "inputs": [
        {
          "internalType": "uint256",
          "name": "tokenId",
          "type": "uint256"
        }
      ],
      "name": "getApproved",
      "outputs": [
        {
          "internalType": "address",
          "name": "",
          "type": "address"
        }
      ],
      "stateMutability": "view",
      "type": "function"
    },
    {
      "inputs": [],
      "name": "getCurrentSettlementWeek",
      "outputs": [
        {
          "internalType": "uint256",
          "name": "",
          "type": "uint256"
        }
      ],
      "stateMutability": "view",
      "type": "function"
    },
    {
      "inputs": [],
      "name": "getCurrentUtilization",
      "outputs": [
        {
          "internalType": "uint256",
          "name": "",
          "type": "uint256"
        }
      ],
      "stateMutability": "view",
      "type": "function"
    },
    {
      "inputs": [
        {
          "internalType": "uint256",
          "name": "weekNumber",
          "type": "uint256"
        }
      ],
      "name": "getFriday",
      "outputs": [
        {
          "internalType": "uint256",
          "name": "",
          "type": "uint256"
        }
      ],
      "stateMutability": "pure",
      "type": "function"
    },
    {
      "inputs": [
        {
          "internalType": "uint256",
          "name": "weekNumber",
          "type": "uint256"
        }
      ],
      "name": "getMonday",
      "outputs": [
        {
          "internalType": "uint256",
          "name": "",
          "type": "uint256"
        }
      ],
      "stateMutability": "pure",
      "type": "function"
    },
    {
      "inputs": [
        {
          "internalType": "uint256[]",
          "name": "policyIds",
          "type": "uint256[]"
        }
      ],
      "name": "getPolicies",
      "outputs": [
        {
          "components": [
            {
              "internalType": "address",
              "name": "holder",
              "type": "address"
            },
            {
              "internalType": "uint256",
              "name": "coverage",
              "type": "uint256"
            },
            {
              "internalType": "uint256",
              "name": "threshold",
              "type": "uint256"
            },
            {
              "internalType": "uint256",
              "name": "premium",
              "type": "uint256"
            },
            {
              "internalType": "uint256",
              "name": "purchaseTime",
              "type": "uint256"
            },
            {
              "internalType": "uint256",
              "name": "fridayClose",
              "type": "uint256"
            },
            {
              "internalType": "uint256",
              "name": "settlementWeek",
              "type": "uint256"
            },
            {
              "internalType": "bool",
              "name": "settled",
              "type": "bool"
            },
            {
              "internalType": "bool",
              "name": "paidOut",
              "type": "bool"
            }
          ],
          "internalType": "struct HoodGap.Policy[]",
          "name": "result",
          "type": "tuple[]"
        }
      ],
      "stateMutability": "view",
      "type": "function"
    },
    {
      "inputs": [],
      "name": "getPoolStats",
      "outputs": [
        {
          "internalType": "uint256",
          "name": "_totalStaked",
          "type": "uint256"
        },
        {
          "internalType": "uint256",
          "name": "_totalCoverage",
          "type": "uint256"
        },
        {
          "internalType": "uint256",
          "name": "_utilization",
          "type": "uint256"
        },
        {
          "internalType": "uint256",
          "name": "_reserveBalance",
          "type": "uint256"
        },
        {
          "internalType": "uint256",
          "name": "_activePolicies",
          "type": "uint256"
        }
      ],
      "stateMutability": "view",
      "type": "function"
    },
    {
      "inputs": [],
      "name": "getQueueStats",
      "outputs": [
        {
          "internalType": "uint256",
          "name": "head",
          "type": "uint256"
        },
        {
          "internalType": "uint256",
          "name": "length",
          "type": "uint256"
        },
        {
          "internalType": "uint256",
          "name": "pending",
          "type": "uint256"
        },
        {
          "internalType": "uint256",
          "name": "dollarAhead",
          "type": "uint256"
        },
        {
          "internalType": "uint256",
          "name": "freeLiquidity",
          "type": "uint256"
        }
      ],
      "stateMutability": "view",
      "type": "function"
    },
    {
      "inputs": [
        {
          "internalType": "uint256",
          "name": "subId",
          "type": "uint256"
        }
      ],
      "name": "getSubscription",
      "outputs": [
        {
          "components": [
            {
              "internalType": "address",
              "name": "owner",
              "type": "address"
            },
            {
              "internalType": "uint256",
              "name": "coverage",
              "type": "uint256"
            },
            {
              "internalType": "uint256",
              "name": "threshold",
              "type": "uint256"
            },
            {
              "internalType": "uint256",
              "name": "premiumPerWeek",
              "type": "uint256"
            },
            {
              "internalType": "uint256",
              "name": "startWeek",
              "type": "uint256"
            },
            {
              "internalType": "uint256",
              "name": "totalWeeks",
              "type": "uint256"
            },
            {
              "internalType": "uint256",
              "name": "weeksMinted",
              "type": "uint256"
            }
          ],
          "internalType": "struct HoodGap.Subscription",
          "name": "",
          "type": "tuple"
        }
      ],
      "stateMutability": "view",
      "type": "function"
    },
    {
      "inputs": [],
      "name": "getTimeDecayMultiplier",
      "outputs": [
        {
          "internalType": "uint256",
          "name": "",
          "type": "uint256"
        }
      ],
      "stateMutability": "view",
      "type": "function"
    },
    {
      "inputs": [
        {
          "internalType": "address",
          "name": "user",
          "type": "address"
        }
      ],
      "name": "getUserWithdrawals",
      "outputs": [
        {
          "components": [
            {
              "internalType": "address",
              "name": "staker",
              "type": "address"
            },
            {
              "internalType": "uint256",
              "name": "amount",
              "type": "uint256"
            },
            {
              "internalType": "uint256",
              "name": "requestTime",
              "type": "uint256"
            },
            {
              "internalType": "bool",
              "name": "processed",
              "type": "bool"
            }
          ],
          "internalType": "struct HoodGap.WithdrawalRequest[]",
          "name": "requests",
          "type": "tuple[]"
        }
      ],
      "stateMutability": "view",
      "type": "function"
    },
    {
      "inputs": [
        {
          "internalType": "uint256",
          "name": "newCoverage",
          "type": "uint256"
        }
      ],
      "name": "getUtilizationMultiplier",
      "outputs": [
        {
          "internalType": "uint256",
          "name": "",
          "type": "uint256"
        }
      ],
      "stateMutability": "view",
      "type": "function"
    },
    {
      "inputs": [],
      "name": "getVolatilityMultiplier",
      "outputs": [
        {
          "internalType": "uint256",
          "name": "",
          "type": "uint256"
        }
      ],
      "stateMutability": "view",
      "type": "function"
    },
    {
      "inputs": [
        {
          "internalType": "uint256",
          "name": "timestamp",
          "type": "uint256"
        }
      ],
      "name": "getWeekNumber",
      "outputs": [
        {
          "internalType": "uint256",
          "name": "",
          "type": "uint256"
        }
      ],
      "stateMutability": "pure",
      "type": "function"
    },
    {
      "inputs": [
        {
          "internalType": "uint256",
          "name": "",
          "type": "uint256"
        }
      ],
      "name": "holidayTimeMultipliers",
      "outputs": [
        {
          "internalType": "uint256",
          "name": "",
          "type": "uint256"
        }
      ],
      "stateMutability": "view",
      "type": "function"
    },
    {
      "inputs": [
        {
          "internalType": "address",
          "name": "owner",
          "type": "address"
        },
        {
          "internalType": "address",
          "name": "operator",
          "type": "address"
        }
      ],
      "name": "isApprovedForAll",
      "outputs": [
        {
          "internalType": "bool",
          "name": "",
          "type": "bool"
        }
      ],
      "stateMutability": "view",
      "type": "function"
    },
    {
      "inputs": [
        {
          "internalType": "uint256",
          "name": "subId",
          "type": "uint256"
        }
      ],
      "name": "mintWeekPolicy",
      "outputs": [],
      "stateMutability": "nonpayable",
      "type": "function"
    },
    {
      "inputs": [],
      "name": "mondayOpenTime",
      "outputs": [
        {
          "internalType": "uint256",
          "name": "",
          "type": "uint256"
        }
      ],
      "stateMutability": "view",
      "type": "function"
    },
    {
      "inputs": [],
      "name": "name",
      "outputs": [
        {
          "internalType": "string",
          "name": "",
          "type": "string"
        }
      ],
      "stateMutability": "view",
      "type": "function"
    },
    {
      "inputs": [],
      "name": "nextPolicyId",
      "outputs": [
        {
          "internalType": "uint256",
          "name": "",
          "type": "uint256"
        }
      ],
      "stateMutability": "view",
      "type": "function"
    },
    {
      "inputs": [],
      "name": "nextSubscriptionId",
      "outputs": [
        {
          "internalType": "uint256",
          "name": "",
          "type": "uint256"
        }
      ],
      "stateMutability": "view",
      "type": "function"
    },
    {
      "inputs": [],
      "name": "owner",
      "outputs": [
        {
          "internalType": "address",
          "name": "",
          "type": "address"
        }
      ],
      "stateMutability": "view",
      "type": "function"
    },
    {
      "inputs": [
        {
          "internalType": "uint256",
          "name": "tokenId",
          "type": "uint256"
        }
      ],
      "name": "ownerOf",
      "outputs": [
        {
          "internalType": "address",
          "name": "",
          "type": "address"
        }
      ],
      "stateMutability": "view",
      "type": "function"
    },
    {
      "inputs": [],
      "name": "pause",
      "outputs": [],
      "stateMutability": "nonpayable",
      "type": "function"
    },
    {
      "inputs": [],
      "name": "paused",
      "outputs": [
        {
          "internalType": "bool",
          "name": "",
          "type": "bool"
        }
      ],
      "stateMutability": "view",
      "type": "function"
    },
    {
      "inputs": [
        {
          "internalType": "uint256",
          "name": "",
          "type": "uint256"
        }
      ],
      "name": "pendingHolidayChanges",
      "outputs": [
        {
          "internalType": "uint256",
          "name": "value",
          "type": "uint256"
        },
        {
          "internalType": "uint256",
          "name": "executeAfter",
          "type": "uint256"
        },
        {
          "internalType": "bool",
          "name": "exists",
          "type": "bool"
        },
        {
          "internalType": "string",
          "name": "description",
          "type": "string"
        }
      ],
      "stateMutability": "view",
      "type": "function"
    },
    {
      "inputs": [],
      "name": "pendingVolatilityChange",
      "outputs": [
        {
          "internalType": "uint256",
          "name": "value",
          "type": "uint256"
        },
        {
          "internalType": "uint256",
          "name": "executeAfter",
          "type": "uint256"
        },
        {
          "internalType": "bool",
          "name": "exists",
          "type": "bool"
        },
        {
          "internalType": "string",
          "name": "description",
          "type": "string"
        }
      ],
      "stateMutability": "view",
      "type": "function"
    },
    {
      "inputs": [
        {
          "internalType": "uint256",
          "name": "",
          "type": "uint256"
        }
      ],
      "name": "policies",
      "outputs": [
        {
          "internalType": "address",
          "name": "holder",
          "type": "address"
        },
        {
          "internalType": "uint256",
          "name": "coverage",
          "type": "uint256"
        },
        {
          "internalType": "uint256",
          "name": "threshold",
          "type": "uint256"
        },
        {
          "internalType": "uint256",
          "name": "premium",
          "type": "uint256"
        },
        {
          "internalType": "uint256",
          "name": "purchaseTime",
          "type": "uint256"
        },
        {
          "internalType": "uint256",
          "name": "fridayClose",
          "type": "uint256"
        },
        {
          "internalType": "uint256",
          "name": "settlementWeek",
          "type": "uint256"
        },
        {
          "internalType": "bool",
          "name": "settled",
          "type": "bool"
        },
        {
          "internalType": "bool",
          "name": "paidOut",
          "type": "bool"
        }
      ],
      "stateMutability": "view",
      "type": "function"
    },
    {
      "inputs": [
        {
          "internalType": "uint256",
          "name": "",
          "type": "uint256"
        }
      ],
      "name": "policySubscriptionId",
      "outputs": [
        {
          "internalType": "uint256",
          "name": "",
          "type": "uint256"
        }
      ],
      "stateMutability": "view",
      "type": "function"
    },
    {
      "inputs": [],
      "name": "priceOracle",
      "outputs": [
        {
          "internalType": "contract AggregatorV3Interface",
          "name": "",
          "type": "address"
        }
      ],
      "stateMutability": "view",
      "type": "function"
    },
    {
      "inputs": [
        {
          "internalType": "uint256",
          "name": "maxToProcess",
          "type": "uint256"
        }
      ],
      "name": "processWithdrawalQueue",
      "outputs": [],
      "stateMutability": "nonpayable",
      "type": "function"
    },
    {
      "inputs": [],
      "name": "queueHead",
      "outputs": [
        {
          "internalType": "uint256",
          "name": "",
          "type": "uint256"
        }
      ],
      "stateMutability": "view",
      "type": "function"
    },
    {
      "inputs": [
        {
          "internalType": "uint256",
          "name": "week",
          "type": "uint256"
        },
        {
          "internalType": "uint256",
          "name": "multiplier",
          "type": "uint256"
        },
        {
          "internalType": "string",
          "name": "reason",
          "type": "string"
        }
      ],
      "name": "queueHolidayMultiplier",
      "outputs": [],
      "stateMutability": "nonpayable",
      "type": "function"
    },
    {
      "inputs": [
        {
          "internalType": "uint256",
          "name": "newVolatility",
          "type": "uint256"
        },
        {
          "internalType": "string",
          "name": "reason",
          "type": "string"
        }
      ],
      "name": "queueVolatilityChange",
      "outputs": [],
      "stateMutability": "nonpayable",
      "type": "function"
    },
    {
      "inputs": [],
      "name": "renounceOwnership",
      "outputs": [],
      "stateMutability": "nonpayable",
      "type": "function"
    },
    {
      "inputs": [
        {
          "internalType": "uint256",
          "name": "amount",
          "type": "uint256"
        }
      ],
      "name": "requestWithdrawal",
      "outputs": [],
      "stateMutability": "nonpayable",
      "type": "function"
    },
    {
      "inputs": [],
      "name": "reserveBalance",
      "outputs": [
        {
          "internalType": "uint256",
          "name": "",
          "type": "uint256"
        }
      ],
      "stateMutability": "view",
      "type": "function"
    },
    {
      "inputs": [
        {
          "internalType": "address",
          "name": "from",
          "type": "address"
        },
        {
          "internalType": "address",
          "name": "to",
          "type": "address"
        },
        {
          "internalType": "uint256",
          "name": "tokenId",
          "type": "uint256"
        }
      ],
      "name": "safeTransferFrom",
      "outputs": [],
      "stateMutability": "nonpayable",
      "type": "function"
    },
    {
      "inputs": [
        {
          "internalType": "address",
          "name": "from",
          "type": "address"
        },
        {
          "internalType": "address",
          "name": "to",
          "type": "address"
        },
        {
          "internalType": "uint256",
          "name": "tokenId",
          "type": "uint256"
        },
        {
          "internalType": "bytes",
          "name": "data",
          "type": "bytes"
        }
      ],
      "name": "safeTransferFrom",
      "outputs": [],
      "stateMutability": "nonpayable",
      "type": "function"
    },
    {
      "inputs": [
        {
          "internalType": "address",
          "name": "operator",
          "type": "address"
        },
        {
          "internalType": "bool",
          "name": "approved",
          "type": "bool"
        }
      ],
      "name": "setApprovalForAll",
      "outputs": [],
      "stateMutability": "nonpayable",
      "type": "function"
    },
    {
      "inputs": [
        {
          "internalType": "address",
          "name": "newTreasury",
          "type": "address"
        }
      ],
      "name": "setTreasury",
      "outputs": [],
      "stateMutability": "nonpayable",
      "type": "function"
    },
    {
      "inputs": [
        {
          "internalType": "uint256",
          "name": "policyId",
          "type": "uint256"
        }
      ],
      "name": "settlePolicy",
      "outputs": [],
      "stateMutability": "nonpayable",
      "type": "function"
    },
    {
      "inputs": [
        {
          "internalType": "uint256",
          "name": "",
          "type": "uint256"
        }
      ],
      "name": "settlementApproved",
      "outputs": [
        {
          "internalType": "bool",
          "name": "",
          "type": "bool"
        }
      ],
      "stateMutability": "view",
      "type": "function"
    },
    {
      "inputs": [
        {
          "internalType": "uint256",
          "name": "",
          "type": "uint256"
        }
      ],
      "name": "settlementApprovedTime",
      "outputs": [
        {
          "internalType": "uint256",
          "name": "",
          "type": "uint256"
        }
      ],
      "stateMutability": "view",
      "type": "function"
    },
    {
      "inputs": [
        {
          "internalType": "uint256",
          "name": "",
          "type": "uint256"
        }
      ],
      "name": "splitRatios",
      "outputs": [
        {
          "internalType": "uint256",
          "name": "",
          "type": "uint256"
        }
      ],
      "stateMutability": "view",
      "type": "function"
    },
    {
      "inputs": [
        {
          "internalType": "uint256",
          "name": "amount",
          "type": "uint256"
        }
      ],
      "name": "stake",
      "outputs": [],
      "stateMutability": "nonpayable",
      "type": "function"
    },
    {
      "inputs": [
        {
          "internalType": "address",
          "name": "",
          "type": "address"
        }
      ],
      "name": "stakerBalances",
      "outputs": [
        {
          "internalType": "uint256",
          "name": "",
          "type": "uint256"
        }
      ],
      "stateMutability": "view",
      "type": "function"
    },
    {
      "inputs": [
        {
          "internalType": "uint256",
          "name": "",
          "type": "uint256"
        }
      ],
      "name": "subscriptions",
      "outputs": [
        {
          "internalType": "address",
          "name": "owner",
          "type": "address"
        },
        {
          "internalType": "uint256",
          "name": "coverage",
          "type": "uint256"
        },
        {
          "internalType": "uint256",
          "name": "threshold",
          "type": "uint256"
        },
        {
          "internalType": "uint256",
          "name": "premiumPerWeek",
          "type": "uint256"
        },
        {
          "internalType": "uint256",
          "name": "startWeek",
          "type": "uint256"
        },
        {
          "internalType": "uint256",
          "name": "totalWeeks",
          "type": "uint256"
        },
        {
          "internalType": "uint256",
          "name": "weeksMinted",
          "type": "uint256"
        }
      ],
      "stateMutability": "view",
      "type": "function"
    },
    {
      "inputs": [
        {
          "internalType": "bytes4",
          "name": "interfaceId",
          "type": "bytes4"
        }
      ],
      "name": "supportsInterface",
      "outputs": [
        {
          "internalType": "bool",
          "name": "",
          "type": "bool"
        }
      ],
      "stateMutability": "view",
      "type": "function"
    },
    {
      "inputs": [],
      "name": "symbol",
      "outputs": [
        {
          "internalType": "string",
          "name": "",
          "type": "string"
        }
      ],
      "stateMutability": "view",
      "type": "function"
    },
    {
      "inputs": [
        {
          "internalType": "uint256",
          "name": "tokenId",
          "type": "uint256"
        }
      ],
      "name": "tokenURI",
      "outputs": [
        {
          "internalType": "string",
          "name": "",
          "type": "string"
        }
      ],
      "stateMutability": "view",
      "type": "function"
    },
    {
      "inputs": [],
      "name": "totalCoverage",
      "outputs": [
        {
          "internalType": "uint256",
          "name": "",
          "type": "uint256"
        }
      ],
      "stateMutability": "view",
      "type": "function"
    },
    {
      "inputs": [],
      "name": "totalStaked",
      "outputs": [
        {
          "internalType": "uint256",
          "name": "",
          "type": "uint256"
        }
      ],
      "stateMutability": "view",
      "type": "function"
    },
    {
      "inputs": [
        {
          "internalType": "address",
          "name": "from",
          "type": "address"
        },
        {
          "internalType": "address",
          "name": "to",
          "type": "address"
        },
        {
          "internalType": "uint256",
          "name": "tokenId",
          "type": "uint256"
        }
      ],
      "name": "transferFrom",
      "outputs": [],
      "stateMutability": "nonpayable",
      "type": "function"
    },
    {
      "inputs": [
        {
          "internalType": "address",
          "name": "newOwner",
          "type": "address"
        }
      ],
      "name": "transferOwnership",
      "outputs": [],
      "stateMutability": "nonpayable",
      "type": "function"
    },
    {
      "inputs": [],
      "name": "treasury",
      "outputs": [
        {
          "internalType": "address",
          "name": "",
          "type": "address"
        }
      ],
      "stateMutability": "view",
      "type": "function"
    },
    {
      "inputs": [],
      "name": "unpause",
      "outputs": [],
      "stateMutability": "nonpayable",
      "type": "function"
    },
    {
      "inputs": [],
      "name": "updateWeekTiming",
      "outputs": [],
      "stateMutability": "nonpayable",
      "type": "function"
    },
    {
      "inputs": [
        {
          "internalType": "address",
          "name": "",
          "type": "address"
        },
        {
          "internalType": "uint256",
          "name": "",
          "type": "uint256"
        }
      ],
      "name": "userWithdrawalRequests",
      "outputs": [
        {
          "internalType": "uint256",
          "name": "",
          "type": "uint256"
        }
      ],
      "stateMutability": "view",
      "type": "function"
    },
    {
      "inputs": [
        {
          "internalType": "uint256",
          "name": "",
          "type": "uint256"
        }
      ],
      "name": "withdrawalQueue",
      "outputs": [
        {
          "internalType": "address",
          "name": "staker",
          "type": "address"
        },
        {
          "internalType": "uint256",
          "name": "amount",
          "type": "uint256"
        },
        {
          "internalType": "uint256",
          "name": "requestTime",
          "type": "uint256"
        },
        {
          "internalType": "bool",
          "name": "processed",
          "type": "bool"
        }
      ],
      "stateMutability": "view",
      "type": "function"
    }
  ],
  "bytecode": "0x60c0346200060157601f90601f199062005fc86001600160401b0338829003858101851684019082821185831017620006065780859160409586948552833981010312620006015762000052836200063c565b946200006260208095016200063c565b956200006d6200061c565b92600e84526d486f6f6447617020506f6c69637960901b86850152620000926200061c565b92600493848152630484741560e41b88820152855198838a11620005ec576000998a54976001988981811c91168015620005e1575b8c821014620005ce57908b82878f8187961162000573575b92505050508b908d87841160011462000510579262000504575b5050600019600383901b1c191690881b178a555b8151938411620004f15786548781811c91168015620004e6575b8a821014620004d35790818486959493116200047c575b50899284116001146200041b575089926200040f575b5050600019600383901b1c191690841b1783555b3315620003f85760068054336001600160a01b0319821681179092558551986001600160a01b03939092849283167f8be0079c531659141344cd1fd0a4f28419497f9722a3daafe3b4186f6b6457e08b80a38560075561138860185516978815620003b75750169384156200037557608087905260a08590528054610100600160a81b0319163360081b610100600160a81b0316178155635ff326684210620003335750635ff32667194201428111620003205762093a809004916200022e8362000651565b620441d71981019081116200030d576019558201809211620002fa5750620002569062000651565b601a5551927f4ca662a5f1f012e4d740b256559dce10a6b72cdec96be0142f5e2eb49dd37a6e339380a461593790816200069182396080518181816110340152818161178401528181611dce015281816120a701528181612405015281816139d7015281816149b0015281816150a401526155cb015260a051818181610ea2015281816124ff0152818161308201528181613d3101528181613e120152614cde0152f35b634e487b7160e01b855260119052602484fd5b634e487b7160e01b875260118352602487fd5b634e487b7160e01b865260118252602486fd5b835162461bcd60e51b815291820152601560248201527f4265666f7265207265666572656e636520646174650000000000000000000000604482015260649150fd5b835162461bcd60e51b815291820152601660248201527f496e76616c6964206f7261636c65206164647265737300000000000000000000604482015260649150fd5b62461bcd60e51b8152838101879052601460248201527f496e76616c6964205553444320616464726573730000000000000000000000006044820152606490fd5b8351631e4fbdf760e01b8152808301879052602490fd5b01519050388062000154565b878b52898b20889590939291168b5b8b8282106200046557505084116200044b575b505050811b01835562000168565b015160001960f88460031b161c191690553880806200043d565b8385015186558a979095019493840193016200042a565b9091929350878b52898b208480870160051c8201928c8810620004c9575b9187968b92969594930160051c01915b828110620004ba5750506200013e565b8d81558796508a9101620004aa565b925081926200049a565b634e487b7160e01b8b526022875260248bfd5b90607f169062000127565b634e487b7160e01b8a526041865260248afd5b015190503880620000f9565b91908d868d96169084805280852094905b8282106200055b575050841162000541575b505050811b018a556200010d565b015160001960f88460031b161c1916905538808062000533565b8385015186558e979095019493840193018f62000521565b8394955080809492939452209181860160051c8301938610620005c4575b859493910160051c909101908b908f5b838210620005b5578f9350899150620000df565b81558594508c91018f620005a1565b9250819262000591565b634e487b7160e01b8d526022895260248dfd5b90607f1690620000c7565b604186634e487b7160e01b6000525260246000fd5b600080fd5b634e487b7160e01b600052604160045260246000fd5b60408051919082016001600160401b038111838210176200060657604052565b51906001600160a01b03821682036200060157565b62093a80908181029181830414901517156200067a57635ff326689081018091116200067a5790565b634e487b7160e01b600052601160045260246000fdfe608080604052600436101561001357600080fd5b60003560e01c90816301ffc9a71461333b57508063034fcf9d1461331d57806306fdde031461327a578063081812fc1461323c57806308af54311461321f578063095ea7b3146131385780630a236407146131125780630b74ce72146130e657806312f49319146130c8578063179f548a146113e257806323b872dd146130b15780632630c12f1461306c57806329c3e69014612ff15780632d2afb1814612fd45780632d5bbf6014612f5f578063342c00b314612f4357806334fbc9a114612f27578063352d48ac14612c4f57806339acdcdb14612c335780633d8e7e2614612c175780633f4ba83a14612bcc57806341910f9014611e3757806342842e0e14612ba45780634495145d14612abb578063452656ab14612a0d57806345b05d091461287e57806348f54f03146128605780634da314cd146127a55780634fb3e49d14612774578063585403ea146127565780635c975abb146127345780635da2460d1461238e57806361d027b3146123635780636352211e1461233357806363a03bc314612315578063671c88fb146122fa5780636b71742514611fcf57806370a0823114611f76578063715018a614611f195780637238ff3714611f005780637848e375146104345780637ab0d1e814611ed45780637c7d4e8114611ea8578063817b1cd214611e8a5780638456cb5914611e3c578063863e96c214611e375780638952e57714611dfd57806389a3027114611db85780638cbe096e14611d9a5780638da5cb5b14611d715780638f43b2e714611b4e5780639224568e14611b3057806392b253cd14611b1557806395d89b4114611a505780639652364414611a325780639845c547146113e25780639a104d7214611a065780639c4fd093146119e85780639ce526d21461198d5780639ee679e814611969578063a10954fe1461194b578063a22cb4651461189d578063a471e54714611845578063a694fc3a14611728578063a6d5d73c146116b8578063aea0e5d614611666578063b88d4fde14611605578063bbb85188146115a6578063bd11c4c0146113e2578063c822adda14611544578063c87b56dd146114f1578063cad0b8db146114d3578063d1155c93146113e7578063d1632448146113e2578063d3e894831461134e578063d51942e214611330578063d68a7c5214610e07578063da58935f14610de9578063dacd818414610dcd578063dc311dd314610ce7578063ddd890bd14610a02578063df69433b146109c0578063dfd2b76214610996578063e29fc4bd14610945578063e502eb6814610788578063e7d245ec14610765578063e985e9c51461070f578063ec57d4a2146106ef578063eef0b95b146105f3578063f0f442601461052e578063f2fde38b146104a6578063faad745a1461047b578063fceeee1a1461045c578063fd4708c0146104395763fec33f081461043457600080fd5b6136b4565b34610457576000366003190112610457576020604051620441d88152f35b600080fd5b34610457576000366003190112610457576020604051635ff326688152f35b3461045757602036600319011261045757610494614218565b61049f600435614c71565b6001600755005b34610457576020366003190112610457576104bf6133e6565b6104c76137a7565b6001600160a01b0390811690811561051557600680546001600160a01b031981168417909155167f8be0079c531659141344cd1fd0a4f28419497f9722a3daafe3b4186f6b6457e0600080a3005b604051631e4fbdf760e01b815260006004820152602490fd5b34610457576020366003190112610457576105476133e6565b61054f6137a7565b6001600160a01b038181169182156105ae5760208054610100600160a81b03198116600893841b610100600160a81b031617909155901c167f4ab5be82436d353e61ca18726e984e561f5c1cc7c6d38b29d2553c790434705a600080a3005b60405162461bcd60e51b815260206004820152601f60248201527f54726561737572792063616e6e6f74206265207a65726f2061646472657373006044820152606490fd5b346104575760208060031936011261045757600435906106116137a7565b81600052601f8152604060002060ff600282015416156106aa57908161065e60017fc8dc792bb56bc8a6cc52051f7a9d10a9f8620eabfdf5e969448512e940c10ff5940154421015614aed565b6106a561066f6003835493016135ac565b856000526014845282604060002055601f845261068f6040600020614b39565b60408051948594855284015260408301906133a6565b0390a2005b60405162461bcd60e51b815260048101839052601f60248201527f4e6f2070656e64696e67206368616e676520666f722074686973207765656b006044820152606490fd5b34610457576000366003190112610457576020604051640ba43b74008152f35b34610457576040366003190112610457576107286133e6565b6107306133fc565b9060018060a01b03809116600052600560205260406000209116600052602052602060ff604060002054166040519015158152f35b346104575760003660031901126104575760206107806153ea565b604051908152f35b3461045757602080600319360112610457576001600160a01b0390816107ac6133e6565b1660005260168152604060002090604051808383829554938481520190600052836000209260005b8582821061092f575050506107eb9250038361358b565b8151906107f7826153bf565b91610805604051938461358b565b808352610814601f19916153bf565b018160005b8281106108fd5750505060005b835181101561089b578061084661084061089693876153d6565b51613752565b5060ff600360405192610858846134e8565b898154168452600181015487850152600281015460408501520154161515606082015261088582866153d6565b5261089081856153d6565b5061410a565b610826565b509150604051918083018184528251809152816040850193019160005b8281106108c55785850386f35b8351805188168652808301518684015260408082015190870152606090810151151590860152608090940193928101926001016108b8565b604051610909816134e8565b600081526000838201526000604082015260006060820152828287010152018290610819565b85548452600195860195889550930192016107d4565b3461045757602036600319011261045757600435600052601f60205260406000208054610992600183015492610985600360ff60028401541692016135ac565b9060405194859485613652565b0390f35b346104575760003660031901126104575760206113886109b7601854613dc3565b04604051908152f35b34610457576020366003190112610457576109926109df600435613fda565b6040939193519384931515845260208401526060604084015260608301906133a6565b3461045757610a1036613771565b9291610a1a6137a7565b61271081101580610cdb575b15610c965782600052601f9160209280845260ff60026040600020015416610c455762015180420193844211610c2f57604051610a62816134e8565b8481528181019286845260036040830192610abd600194858152610a888d36908b61371b565b97606084019889528c6000528588526040600020935184555186840155511515600283019060ff801983541691151516179055565b0193518051936001600160401b038511610c1957610adb86546134ae565b838111610be1575b5080928511600114610b4f575092807ff490e9fbb18b897ecfecff82b907aa94dbbb2aa47e7e4e88728756f5898a7187999a959381936106a59896600094610b44575b50501b916000199060031b1c19161790555b60405194859485614ad1565b015192508c80610b26565b9190601f9493941984168660005283600020936000905b828210610bca575050916106a597959391857ff490e9fbb18b897ecfecff82b907aa94dbbb2aa47e7e4e88728756f5898a71879c9d98969410610bb1575b505050811b019055610b38565b015160001960f88460031b161c191690558a8080610ba4565b808886978294978701518155019601940190610b66565b610c0a9087600052826000208580890160051c820192858a10610c10575b0160051c0190614aba565b8b610ae3565b92508192610bff565b634e487b7160e01b600052604160045260246000fd5b634e487b7160e01b600052601160045260246000fd5b60405162461bcd60e51b8152600481018590526024808201527f4368616e676520616c72656164792070656e64696e6720666f722074686973206044820152637765656b60e01b6064820152608490fd5b60405162461bcd60e51b815260206004820152601c60248201527f4d756c7469706c696572206d75737420626520312e30782d352e3078000000006044820152606490fd5b5061c350811115610a26565b3461045757602036600319011261045757600060c0604051610d088161351f565b8281528260208201528260408201528260608201528260808201528260a08201520152600435600052600f60205260e06040600020604051610d498161351f565b60018060a01b0382541691828252600181015460208301908152600282015460408401908152600383015490606085019182526004840154926080860193845260c0600660058701549660a08901978852015496019586526040519687525160208701525160408601525160608501525160808401525160a08301525160c0820152f35b3461045757600036600319011261045757602060405160148152f35b34610457576000366003190112610457576020600e54604051908152f35b34610457576020806003193601126104575760043590610e25614218565b81600052600d8152604060002090600782019182549060ff82166112f257600681015493610e52856156c4565b8042106112b757610e6286613fda565b909791156112915750806000526012865260ff6040600020541615611235575b50604051633fabe5a360e21b8152956001600160a01b039160a0886004817f000000000000000000000000000000000000000000000000000000000000000087165afa8015611141576000986000916111fe575b50610ee360008a136147e8565b106111ad57612710610efc610f33926005870154613dda565b04936001610f0a868a615705565b9660ff191617845585600260018301610f268154600954613db6565b600955549201549161588a565b9081610f89575b877f867effe36b5d659ca18cf8d8e4c7b281891400082e7381bfe54b5cea01ca40b860808989898960ff8a5460081c1692604051948552840152604083015215156060820152a261049f61541a565b825461ff001916610100178355600854828082101561119c575050610fb060085483613db6565b600a5481811061114d5790610fe6817f06e0ee44ab8cce23acace0bca38e4abb36384c5f6a44cc0052a187e86d8662a993613db6565b600a556000600855600954906110028b604051938493846144b5565b0390a15b61100f88613c45565b60405163a9059cbb60e01b815287818061102d878660048401614781565b03816000877f0000000000000000000000000000000000000000000000000000000000000000165af190811561114157600091611114575b50156110d657926080969492897fe7de3ce2ca3557f71281a490a3a9a320e1b2b11fba30fba9966c512b665c165c604060ff957f867effe36b5d659ca18cf8d8e4c7b281891400082e7381bfe54b5cea01ca40b89c9a988251958652898b8701521693a39294965081939550610f3a565b60405162461bcd60e51b815260048101889052601660248201527514185e5bdd5d081d1c985b9cd9995c8819985a5b195960521b6044820152606490fd5b6111349150883d8a1161113a575b61112c818361358b565b81019061419b565b8a611065565b503d611122565b6040513d6000823e3d90fd5b60405162461bcd60e51b815260048101899052602160248201527f496e73756666696369656e7420706f6f6c202b20726573657276652066756e646044820152607360f81b6064820152608490fd5b6111a591613db6565b600855611006565b60405162461bcd60e51b8152600481018790526024808201527f4f7261636c65206e6f7420757064617465642073696e6365204d6f6e6461792060448201526337b832b760e11b6064820152608490fd5b905061122291985060a03d811161122e575b61121a818361358b565b810190613cea565b5099925050978a610ed6565b503d611210565b7f198e4df8935ddeb51216889b25f18eedd57c0be3d9b3ce2bb11dee36fc1e61926060604051888152601e898201527f44656661756c74696e6720746f20312e30782073706c697420726174696f00006040820152a287610e82565b866112b360405192839262461bcd60e51b8452600484015260248301906133a6565b0390fd5b60405162461bcd60e51b8152600481018690526013602482015272546f6f206561726c7920746f20736574746c6560681b6044820152606490fd5b60405162461bcd60e51b8152600481018490526016602482015275141bdb1a58de48185b1c9958591e481cd95d1d1b195960521b6044820152606490fd5b34610457576000366003190112610457576020600954604051908152f35b3461045757602036600319011261045757600435600052600d602052610120604060002060ff60018060a01b0382541691600181015490600281015460038201546004830154906005840154926007600686015495015495604051988952602089015260408801526060870152608086015260a085015260c0840152818116151560e084015260081c161515610100820152f35b613412565b34610457576113f536613771565b90916113ff6137a7565b801515806114c7575b156114875761147c7f466a123d06c1e68c575d6349c0ec02d5cfa2ddac23f8dcd71e391389dc895953938560005260116020528260406000205560126020526040600020600160ff198254161790556013602052426040600020556040519384938452606060208501526060840191614a99565b4260408301520390a2005b60405162461bcd60e51b815260206004820152601860248201527753706c697420726174696f206f7574206f662072616e676560401b6044820152606490fd5b5061c350811115611408565b34610457576000366003190112610457576020600c54604051908152f35b346104575760203660031901126104575761150d600435613c45565b50600060405161151c8161353a565b5261099260405161152c8161353a565b600081526040519182916020835260208301906133a6565b34610457576020366003190112610457576004356015548110156104575761156d608091613752565b5060018060a01b038154169060018101549060ff6003600283015492015416916040519384526020840152604083015215156060820152f35b346104575760003660031901126104575760085480156115fd5760095461271090818102918183041490151715610c2f57816115e191613c80565b905b61099260095492600a54600c54916040519586958661367a565b6000906115e3565b346104575760803660031901126104575761161e6133e6565b6116266133fc565b606435916001600160401b03831161045757366023840112156104575761165a61166493369060248160040135910161371b565b9160443591613af0565b005b346104575760603660031901126104575761168f6116826133e6565b6044359060243590614fc5565b604051921515835260606020840181905283926116ae918401906133a6565b9060408301520390f35b34610457576000366003190112610457576116d242615664565b6116db816156eb565b8060195560018201808311610c2f577f409fce906acfee5792fc2cb2c3754ce173dee38333e92a649fdbf27e05be2a4b916117176040926156c4565b80601a5582519182526020820152a2005b34610457576020806003193601126104575760043590611746614218565b61175460ff82541615614119565b61175f82151561415a565b6040516323b872dd60e01b815281818061177e863033600485016141b3565b038160007f00000000000000000000000000000000000000000000000000000000000000006001600160a01b03165af18015611141576117c691600091611828575b506141d5565b33600052600b815260406000206117de838254613ca0565b90556117ec82600854613ca0565b60085560405191825242908201527f1449c6dd7851abc30abf37f57715f492010519147cc2652fbc38202c18a6ee9060403392a261049f61541a565b61183f9150833d851161113a5761112c818361358b565b846117c0565b346104575760403660031901126104575761185e6133e6565b6001600160a01b03166000908152601660205260409020805460243591908210156104575760209161188f916136d2565b90546040519160031b1c8152f35b34610457576040366003190112610457576118b66133e6565b6024359081151590818303610457576001600160a01b0316918215611932576119049033600052600560205260406000208460005260205260406000209060ff801983541691151516179055565b6040519081527f17307eab39ab6107e8899845ad3d59bd9653f200f220920489ca2b5937696c3160203392a3005b604051630b61174360e31b815260048101849052602490fd5b34610457576000366003190112610457576020600a54604051908152f35b3461045757602036600319011261045757611982614218565b61049f60043561423b565b34610457576000366003190112610457576119a66137a7565b6119b460ff601d5416614c27565b6119bc614b95565b7f9ee3c8ccbdcf30c4bfae0bd8010eb783f5d7fab7d18d5fb62924782db848544a6020604051428152a1005b346104575760203660031901126104575760206107806004356156c4565b346104575760203660031901126104575760043560005260146020526020604060002054604051908152f35b34610457576000366003190112610457576020601754604051908152f35b346104575760003660031901126104575760405160009060018054611a74816134ae565b80845290828116908115611aed5750600114611aaf575b61099283611a9b8187038261358b565b6040519182916020835260208301906133a6565b92508060005260209283600020916000925b828410611ada57505050810190910190611a9b81611a8b565b8054858501870152928501928101611ac1565b6109929550611a9b93506020915091849260ff191682840152151560051b8201019350611a8b565b34610457576000366003190112610457576020610780613cad565b346104575760003660031901126104575760206040516202a3008152f35b346104575760208060031936011261045757600435906001600160401b03808311610457573660238401121561045757826004013590811161045757600560243683831b860182011161045757611ba4836153bf565b94611bb2604051968761358b565b838652601f19611bc1856153bf565b018560005b828110611d1b5750505060005b848110611c7657604080518781528851818901819052898901928201908960005b828110611c015784840385f35b855180516001600160a01b03168552808301518584015260408082015190860152606080820151908601526080808201519086015260a0808201519086015260c0808201519086015260e080820151151590860152610100908101511515908501529481019461012090930192600101611bf4565b8083611d1692861b84010135600052600d87526040600020600760405191611c9d83613503565b80546001600160a01b0316835260018101548a8401526002810154604084015260038101546060840152600481015460808401528781015460a0840152600681015460c0840152015460ff808216151560e084015260089190911c161515610100820152611d0b828a6153d6565b5261089081896153d6565b611bd3565b604051611d2781613503565b60008152600083820152600060408201526000606082015260006080820152600060a0820152600060c0820152600060e0820152600061010082015282828b010152018690611bc6565b34610457576000366003190112610457576006546040516001600160a01b039091168152602090f35b34610457576020366003190112610457576020610780600435615664565b34610457576000366003190112610457576040517f00000000000000000000000000000000000000000000000000000000000000006001600160a01b03168152602090f35b34610457576020366003190112610457576001600160a01b03611e1e6133e6565b16600052600b6020526020604060002054604051908152f35b613491565b3461045757600036600319011261045757611e556137a7565b600160ff196020541617602055337f62e78cea01bee320cd4e420270b5ea74000d11b0c9f74754ebdbfc544b05a258600080a2005b34610457576000366003190112610457576020600854604051908152f35b346104575760203660031901126104575760043560005260136020526020604060002054604051908152f35b346104575760203660031901126104575760043560005260116020526020604060002054604051908152f35b34610457576020610780611f133661369e565b90615705565b3461045757600036600319011261045757611f326137a7565b600680546001600160a01b031981169091556000906001600160a01b03167f8be0079c531659141344cd1fd0a4f28419497f9722a3daafe3b4186f6b6457e08280a3005b34610457576020366003190112610457576001600160a01b03611f976133e6565b168015611fb65760005260036020526020604060002054604051908152f35b6040516322718ad960e21b815260006004820152602490fd5b3461045757606036600319011261045757600435604435602435611ff1614218565b60209161200260ff84541615614119565b831515806122eb575b612014906146b2565b6101f480831015806122df575b61202a906146f1565b60048214948580156122d5575b156122995761208261207b94959661205e61205484600954613ca0565b6008541015614737565b61206783613ded565b901561229157835b61271096879183613dda565b0490613db6565b9361208d8486613dda565b6040516323b872dd60e01b815290936001600160a01b03917f00000000000000000000000000000000000000000000000000000000000000008316908a81806120db8a3033600485016141b3565b03816000865af18015611141576120f99160009161227457506141d5565b60c8860290861587830460c814811715610c2f5783880293888504141715610c2f578461212e61215a968d9504600a54613ca0565b600a55600085855460081c16936040519788958694859363a9059cbb60e01b8552049060048401614781565b03925af19081156111415761217b8992600694600091612257575b5061479c565b600e5497889761218a8961410a565b600e55612195613cad565b91604051966121a38861351f565b33885285880190815260408801918252606088019283526080880193845260a08801948a8652600f60c08a0197600089528d60005252604060002098511660018060a01b031989541617885551600188015551600287015551600386015551600485015551600584015551910155604051918252848201527f2bdfae17037529a2e65ec70b13ee84e9aa324112f93c1598ff55cafc6b84df0860403392a361224a81614c71565b6001600755604051908152f35b61226e9150843d861161113a5761112c818361358b565b8b612175565b61228b91508c8d3d1061113a5761112c818361358b565b8c6117c0565b6103e861206f565b60405162461bcd60e51b81526004810186905260146024820152734d7573742062652034206f722038207765656b7360601b6044820152606490fd5b5060088314612037565b506107d0831115612021565b50640ba43b740084111561200b565b34610457576000366003190112610457576020610780613d1c565b34610457576000366003190112610457576020601a54604051908152f35b34610457576020366003190112610457576020612351600435613c45565b6040516001600160a01b039091168152f35b34610457576000366003190112610457576020805460405160089190911c6001600160a01b03168152f35b346104575761239c3661369e565b6123a4614218565b6123b360ff6020541615614119565b81151580612725575b6123c5906146b2565b6101f4918282101580612719575b6123dc906146f1565b6123eb61205482600954613ca0565b6123f481613ded565b6040516323b872dd60e01b815290937f00000000000000000000000000000000000000000000000000000000000000006001600160a01b03169160208180612441893033600485016141b3565b03816000875af180156111415761245f916000916126fa57506141d5565b60c88502851586820460c814811715610c2f5782870292878404141715610c2f576124cf92602092612498612710809204600a54613ca0565b600a55835460405163a9059cbb60e01b81529586948593600093859392919091049060081c6001600160a01b031660048401614781565b03925af18015611141576124ea916000916126db575061479c565b604051633fabe5a360e21b815260a0816004817f00000000000000000000000000000000000000000000000000000000000000006001600160a01b03165afa9182156111415760209461268894600093600095612698575b50612576610e10612570869761256a60006000805160206158e28339815191529899136147e8565b42613db6565b1061482b565b600c549586956125858761410a565b600c55612590613cad565b906126616040516125a081613503565b3381528961264a60078e8401938c8552604081018a8152606082018c81526080830142815260a08401918a835260c08501938c855260e086019960008b5261010087019960008b526000526020600d905260406000209660018060a01b0390511660018060a01b03198854161787555160018701555160028601555160038501555160048401555160058301555160068201550192511515839060ff801983541691151516179055565b51815461ff00191690151560081b61ff0016179055565b61266d87600954613ca0565b60095561267a8833614870565b60405194859433988661367a565b0390a36001600755604051908152f35b61257095506000805160206158e2833981519152939450610e106126cc6125769260a03d811161122e5761121a818361358b565b50999250509695505050612542565b6126f4915060203d60201161113a5761112c818361358b565b85612175565b612713915060203d60201161113a5761112c818361358b565b876117c0565b506107d08211156123d3565b50640ba43b74008211156123bc565b3461045757600036600319011261045757602060ff8154166040519015158152f35b34610457576000366003190112610457576020601854604051908152f35b34610457576020366003190112610457576004356000526012602052602060ff604060002054166040519015158152f35b34610457576000366003190112610457576127be6137a7565b60ff601d54161561281b576127d7601c54421015614aed565b7fe59c68d9bc0005f63f7c64e755d25adbe94b71eee3f9af06975de470cb2db2676040601854601b5460185561280b614b95565b60185482519182526020820152a1005b60405162461bcd60e51b815260206004820152601c60248201527f4e6f2070656e64696e6720766f6c6174696c697479206368616e6765000000006044820152606490fd5b34610457576020366003190112610457576020610780600435613ded565b346104575760203660031901126104575760043561289a614218565b60159081548110156129d3576128af81613752565b5080546001600160a01b0316330361299b5760038091019283549160ff928381166129625760ff19166001908117909555845b612921575b5050506040519081524260208201527f609802616efe88a6b73a266ced98c5dfd07c25e64549e620527605107ea30e8160403392a2600755005b8460178054845481108061294d575b156129455761293e9061410a565b90556128e2565b5050506128e7565b50858461295983613752565b50015416612930565b60405162461bcd60e51b8152602060048201526011602482015270105b1c9958591e481c1c9bd8d95cdcd959607a1b6044820152606490fd5b60405162461bcd60e51b815260206004820152601060248201526f139bdd081e5bdd5c881c995c5d595cdd60821b6044820152606490fd5b60405162461bcd60e51b8152602060048201526012602482015271125b9d985b1a59081c995c5d595cdd08125160721b6044820152606490fd5b346104575760003660031901126104575760175460155490600080825b848110612a6857509061099291600854600954808211600014612a5e57612a5091613db6565b915b6040519586958661367a565b5050600091612a52565b60ff6003612a7583613752565b5001541615612a8d575b612a889061410a565b612a2a565b9091612ab3612a9e612a889261410a565b936001612aaa85613752565b50015490613ca0565b919050612a7f565b3461045757600036600319011261045757601b54601c5460ff601d541691604051600093601e54612aeb816134ae565b808452600191808316908115612b7d5750600114612b23575b5050612b1782610992949596038361358b565b60405194859485613652565b601e600090815260209750917f50bb669a95c7b50b7e8a6f09454034b2b14cf2b85c730dca9a539ca82cb6e3505b828410612b6a57505050820190940193612b1782612b04565b80548685018a0152928801928101612b51565b60ff191660208681019190915291151560051b85019091019650612b179150839050612b04565b3461045757611664612bb53661342f565b9060405192612bc38461353a565b60008452613af0565b3461045757600036600319011261045757612be56137a7565b60ff1960205416602055337f5db9ee0a495bf2e6ff9c91a7834c1ba4fdd244a5e8aa4e537bd38aeae4b073aa600080a2005b3461045757600036600319011261045757602060405160088152f35b3461045757600036600319011261045757602060405160048152f35b346104575760403660031901126104575760246001600160401b03600435823582811161045757612c84903690600401613464565b90612c8d6137a7565b6103e883101580612f1b575b15612eda57601d549360ff8516612e895762015180420194854211612e745760405196612cc5886134e8565b8588526020908189019288845260ff60408b01600195868252612ce9368b8b61371b565b9c8d606082015251601b5551601c55511515169060ff191617601d558851938411612e605750612d1a601e546134ae565b601f8111612e24575b5080601f8411600114612d93575091808092612d839695947fb98a2b75956d2bec9cb0dbda629236895481f5570f87a47f6fb24ba3ed1fb8ed9a600094612d88575b50501b916000199060031b1c191617601e5560405194859485614ad1565b0390a1005b015192508a80612d65565b91939497601f198416601e60005283600020936000905b828210612e0d575050917fb98a2b75956d2bec9cb0dbda629236895481f5570f87a47f6fb24ba3ed1fb8ed9995939185612d8398969410612df4575b505050811b01601e55610b38565b015160001960f88460031b161c19169055888080612de6565b808886978294978701518155019601940190612daa565b612e5090601e60005282600020601f860160051c810191848710612e56575b601f0160051c0190614aba565b88612d23565b9091508190612e43565b634e487b7160e01b60009081526041600452fd5b86634e487b7160e01b60005260116004526000fd5b60405162461bcd60e51b8152602060048201528087018790527f4368616e676520616c72656164792070656e64696e672c2063616e63656c20666044820152631a5c9cdd60e21b6064820152608490fd5b60405162461bcd60e51b815260206004820152601a8187015279566f6c6174696c697479206d7573742062652031302d3135302560301b6044820152606490fd5b50613a98831115612c99565b3461045757600036600319011261045757602060405160c88152f35b34610457576020366003190112610457576116646004356144cb565b3461045757602036600319011261045757600435600052600f60205260e0604060002060018060a01b0381541690600181015490600281015460038201546004830154916006600585015494015494604051968752602087015260408601526060850152608084015260a083015260c0820152f35b346104575760003660031901126104575760206040516113888152f35b346104575760203660031901126104575760043561300d6137a7565b80600052601f60205261302a60ff60026040600020015416614c27565b80600052601f6020526130406040600020614b39565b7f6556e7758d98b69c492a783dc64912efbd4fd3e702a66517c58d941e7d7ea61f6020604051428152a2005b34610457576000366003190112610457576040517f00000000000000000000000000000000000000000000000000000000000000006001600160a01b03168152602090f35b34610457576116646130c23661342f565b916137d3565b346104575760203660031901126104575760206107806004356156eb565b346104575760203660031901126104575760043560005260106020526020604060002054604051908152f35b34610457576020366003190112610457576020610780600954600854906004359061579c565b34610457576040366003190112610457576131516133e6565b60243561315d81613c45565b3315158061320c575b806131df575b6131c7576001600160a01b039283169282918491167f8c5be1e5ebec7d5bd14f71427d1e84f3dd0314c0f7b2291e5b200ac8c7c3b925600080a4600090815260046020526040902080546001600160a01b0319169091179055005b60405163a9fbf51f60e01b8152336004820152602490fd5b5060018060a01b038116600052600560205260406000203360005260205260ff604060002054161561316c565b506001600160a01b038116331415613166565b346104575760003660031901126104575760206040516107d08152f35b346104575760203660031901126104575760043561325981613c45565b506000526004602052602060018060a01b0360406000205416604051908152f35b346104575760003660031901126104575760405160009060005461329d816134ae565b808352600191808316908115611aed57506001146132c55761099283611a9b8187038261358b565b600080805260209450917f290decd9548b62a8d60345a988386fc84ba6bc95484008f6362f93160ef3e5635b82841061330a57505050810190910190611a9b81611a8b565b80548585018701529285019281016132f1565b34610457576000366003190112610457576020601954604051908152f35b34610457576020366003190112610457576004359063ffffffff60e01b8216809203610457576020916380ac58cd60e01b8114908115613395575b8115613384575b5015158152f35b6301ffc9a760e01b1490508361337d565b635b5e139f60e01b81149150613376565b919082519283825260005b8481106133d2575050826000602080949584010152601f8019910116010190565b6020818301810151848301820152016133b1565b600435906001600160a01b038216820361045757565b602435906001600160a01b038216820361045757565b346104575760003660031901126104575760206040516101f48152f35b6060906003190112610457576001600160a01b0390600435828116810361045757916024359081168103610457579060443590565b9181601f84011215610457578235916001600160401b038311610457576020838186019501011161045757565b346104575760003660031901126104575760206040516103e88152f35b90600182811c921680156134de575b60208310146134c857565b634e487b7160e01b600052602260045260246000fd5b91607f16916134bd565b608081019081106001600160401b03821117610c1957604052565b61012081019081106001600160401b03821117610c1957604052565b60e081019081106001600160401b03821117610c1957604052565b602081019081106001600160401b03821117610c1957604052565b604081019081106001600160401b03821117610c1957604052565b606081019081106001600160401b03821117610c1957604052565b90601f801991011681019081106001600160401b03821117610c1957604052565b90604051918260008254926135c0846134ae565b90818452600194858116908160001461362f57506001146135ec575b50506135ea9250038361358b565b565b9093915060005260209081600020936000915b8183106136175750506135ea935082010138806135dc565b855488840185015294850194879450918301916135ff565b9150506135ea94506020925060ff191682840152151560051b82010138806135dc565b90926080926136779594835260208301521515604082015281606082015201906133a6565b90565b9192608093969594919660a084019784526020840152604083015260608201520152565b6040906003190112610457576004359060243590565b34610457576000366003190112610457576020604051620151808152f35b80548210156136ea5760005260206000200190600090565b634e487b7160e01b600052603260045260246000fd5b6001600160401b038111610c1957601f01601f191660200190565b92919261372782613700565b91613735604051938461358b565b829481845281830111610457578281602093846000960137010152565b6015548110156136ea57601560005260206000209060021b0190600090565b6060600319820112610457576004359160243591604435906001600160401b038211610457576137a391600401613464565b9091565b6006546001600160a01b031633036137bb57565b60405163118cdaa760e01b8152336004820152602490fd5b6001600160a01b039182169290918315613ad757600092828452826020956002875260409684888820541680151580613acf575b613976575b5082875260028152848888205416968791331515806138df575b509060027fddf252ad1be2c89b69c2b068fc378daa952ba7f163c4a11628f55a4df523b3ef92846138ac575b858352600381528b8320805460010190558683525289812080546001600160a01b0319168517905580a4169283830361388b5750505050565b6064945051926364283d7b60e01b8452600484015260248301526044820152fd5b600087815260046020526040902080546001600160a01b0319169055848352600381528b83208054600019019055613852565b91939450915080613935575b156138fb57859291879138613826565b878688613918576024915190637e27328960e01b82526004820152fd5b905163177e802f60e01b81529081906112b3903360048401614781565b50338714801561395a575b806138eb57508582526004815233858984205416146138eb565b5086825260058152878220338352815260ff8883205416613940565b90919250600d8252600388882001546101f490818102918183041490151715613abb57906127108794939204806139ae575b5061380c565b909192935088516323b872dd60e01b81528381806139d1853088600485016141b3565b03818c8b7f0000000000000000000000000000000000000000000000000000000000000000165af1908115613ab1578991613a94575b5015613a5257928291877f3834b478d99045a71a95707a272f4ccf4934fe415dc5716d0a4132f44f84d8c4839587613a428499600a54613ca0565b600a558d51908152a438806139a8565b885162461bcd60e51b815260048101849052601b60248201527a151c985b9cd9995c88199959481c185e5b595b9d0819985a5b1959602a1b6044820152606490fd5b613aab9150843d861161113a5761112c818361358b565b38613a07565b8a513d8b823e3d90fd5b634e487b7160e01b88526011600452602488fd5b506001613807565b604051633250574960e11b815260006004820152602490fd5b929092613afe8385836137d3565b833b613b0b575b50505050565b604051630a85bd0160e11b8082523360048301526001600160a01b0392831660248301526044820194909452608060648201529493169260209290918590613b579060848301906133a6565b039483816000978189895af1869181613c01575b50613bcc575050503d600014613bc3573d613b8581613700565b90613b93604051928361358b565b81528093823d92013e5b82519283613bbe57604051633250574960e11b815260048101849052602490fd5b019050fd5b60609250613b9d565b919450915063ffffffff60e01b1603613be9575038808080613b05565b60249060405190633250574960e11b82526004820152fd5b9091508481813d8311613c3e575b613c19818361358b565b81010312613c3a57516001600160e01b031981168103613c3a579038613b6b565b8680fd5b503d613c0f565b6000818152600260205260409020546001600160a01b0316908115613c68575090565b60249060405190637e27328960e01b82526004820152fd5b8115613c8a570490565b634e487b7160e01b600052601260045260246000fd5b91908201809211610c2f57565b613cb642615664565b613cbf816156c4565b42106136775760018101809111610c2f5790565b519069ffffffffffffffffffff8216820361045757565b908160a091031261045757613cfe81613cd3565b91602082015191604081015191613677608060608401519301613cd3565b604051633fabe5a360e21b815260a0816004817f00000000000000000000000000000000000000000000000000000000000000006001600160a01b03165afa80156111415761367791600091613d93575b50613d76613cad565b60005260146020526040600020549060195490601a54429261580b565b613dab915060a03d811161122e5761121a818361358b565b509250505038613d6d565b91908203918211610c2f57565b9061271091828102928184041490151715610c2f57565b81810292918115918404141715610c2f57565b801590811580613fcb575b15613f8c57604051633fabe5a360e21b815260a0816004817f00000000000000000000000000000000000000000000000000000000000000006001600160a01b03165afa908115611141576201518091613e5b91600091613f69575b5042613db6565b1015613f2d576103e88082029082820414831715610c2f57613eba64e8d4a5100091613eb5613e90600954866008549161579c565b613eb5611388613ea1601854613dc3565b0491612710613eae613d1c565b9504613dda565b613dda565b04916101908204808410613f265750605f8202918204605f141715610c2f57606490048111613ee65790565b60405162461bcd60e51b8152602060048201526018602482015277141bdbdb081b1a5c5d5a591a5d1e48195e1a185d5cdd195960421b6044820152606490fd5b9250505090565b60405162461bcd60e51b81526020600482015260146024820152734f7261636c652064617461206973207374616c6560601b6044820152606490fd5b613f81915060a03d811161122e5761121a818361358b565b509250505038613e54565b60405162461bcd60e51b8152602060048201526017602482015276125b9d985b1a590818dbdd995c9859d948185b5bdd5b9d604a1b6044820152606490fd5b50640ba43b7400811115613df8565b600091818352601260205260409160ff83852054166140be57613ffc906156c4565b6202a30081018091116140aa5742101561405c5782916968206661696c7361666560b01b81519161402c83613570565b602a83527f4177616974696e6720677561726469616e20617070726f76616c206f72203438602084015282015290565b81516001935061271092650ce40625c60f60d31b9061407a83613570565b602683527f4661696c736166653a203438682074696d656f75742c2064656661756c74696e602084015282015290565b634e487b7160e01b84526011600452602484fd5b5091819060116020522054918215614100575b60019291516140df81613555565b601181527011dd585c991a585b88185c1c1c9bdd9959607a1b602082015290565b61271092506140d1565b6000198114610c2f5760010190565b1561412057565b60405162461bcd60e51b815260206004820152601260248201527110dbdb9d1c9858dd081a5cc81c185d5cd95960721b6044820152606490fd5b1561416157565b60405162461bcd60e51b81526020600482015260126024820152710416d6f756e74206d757374206265203e20360741b6044820152606490fd5b90816020910312610457575180151581036104575790565b6001600160a01b03918216815291166020820152604081019190915260600190565b156141dc57565b60405162461bcd60e51b81526020600482015260146024820152731554d110c81d1c985b9cd9995c8819985a5b195960621b6044820152606490fd5b600260075414614229576002600755565b604051633ee5aeb560e01b8152600490fd5b61424681151561415a565b6000338152600b6020526040828183205410614474576008546009548082111561446c5761427391613db6565b83111561442a576015549281519161428a836134e8565b338352602083018281528184014281526060850190868252600160401b928389101561441657600189016015556142c089613752565b979097614402575187546001600160a01b039091166001600160a01b0319909116178755516001870155516002860155516003948501805460ff191691151560ff1691909117905533855260166020528185208054918210156143ee579061432d916001820181556136d2565b815490851b9087821b91600019901b191617905583926017545b8681106143b557505062049d40938484029484860414841517156143a157507f845ed4d352e41b41a9c6723beff8483294c7b130efd9f8899246b72cd66896c393929161439c9151938493339742938661367a565b0390a2565b634e487b7160e01b81526011600452602490fd5b60ff826143c183613752565b50015416156143d9575b6143d49061410a565b614347565b936143e66143d49161410a565b9490506143cb565b634e487b7160e01b86526041600452602486fd5b634e487b7160e01b89526004899052602489fd5b634e487b7160e01b88526041600452602488fd5b90614435833361556f565b8151928352602083015242908201527fbe1e8e357f01b865f7bbd4055ed6fbaf1e3029820a3051bc7157277b813022b960603392a2565b505081614273565b5162461bcd60e51b815260206004820152601b60248201527a496e73756666696369656e74207374616b65722062616c616e636560281b6044820152606490fd5b6040919493926060820195825260208201520152565b801515806146a7575b1561466a5760085460095460009181811115614662576144f49250613db6565b915b821561465d579160009260178054925b601554841080614654575b8061464b575b1561462c5761452584613752565b5093600385019160ff83541661460457600195868101918254948186116145d25761457a916145749161456260018060a01b03988987541661556f565b805460ff19168b179055845490613db6565b9961410a565b968301808411610c2f576145cb947fbe1e8e357f01b865f7bbd4055ed6fbaf1e3029820a3051bc7157277b813022b9926145c392885554169254604051918291864291846144b5565b0390a261410a565b9294614506565b509650505050506000805160206158c283398151915293506145ff909491945b54604051938493846144b5565b0390a1565b9694506145cb9150825480821461461b575061410a565b6146249061410a565b835538610890565b92506000805160206158c283398151915293506145ff909491946145f2565b50801515614517565b50848610614511565b915050565b5050916144f6565b60405162461bcd60e51b8152602060048201526015602482015274141c9bd8d95cdcc80c4b4d4c081c195c8818d85b1b605a1b6044820152606490fd5b5060328111156144d4565b156146b957565b60405162461bcd60e51b815260206004820152601060248201526f496e76616c696420636f76657261676560801b6044820152606490fd5b156146f857565b60405162461bcd60e51b81526020600482015260176024820152765468726573686f6c64206d75737420626520352d32302560481b6044820152606490fd5b1561473e57565b60405162461bcd60e51b815260206004820152601b60248201527a496e73756666696369656e7420706f6f6c206c697175696469747960281b6044820152606490fd5b6001600160a01b039091168152602081019190915260400190565b156147a357565b60405162461bcd60e51b815260206004820152601c60248201527f506c6174666f726d20666565207472616e73666572206661696c6564000000006044820152606490fd5b156147ef57565b60405162461bcd60e51b8152602060048201526014602482015273496e76616c6964206f7261636c6520707269636560601b6044820152606490fd5b1561483257565b60405162461bcd60e51b81526020600482015260166024820152754f7261636c6520707269636520746f6f207374616c6560501b6044820152606490fd5b6001600160a01b039081168015613ad7576000928084526020916002835260409380858720541680151580614a91575b61495c575b5082865260028452848620541660028115159485614929575b83885260038152868820805460010190558488525284862080546001600160a01b031916831790557fddf252ad1be2c89b69c2b068fc378daa952ba7f163c4a11628f55a4df523b3ef8680a4614912575050565b6024925051906339e3563760e11b82526004820152fd5b600085815260046020526040902080546001600160a01b03191690558288526003815286882080546000190190556148be565b600d8552600386882001546101f490818102918183041490151715613abb5761271090048061498c575b506148a5565b86516323b872dd60e01b81528681806149aa853088600485016141b3565b03818c887f0000000000000000000000000000000000000000000000000000000000000000165af1908115614a87578991614a6a575b5015614a285790847f3834b478d99045a71a95707a272f4ccf4934fe415dc5716d0a4132f44f84d8c48784614a188896600a54613ca0565b600a558a51908152a43880614986565b865162461bcd60e51b815260048101879052601b60248201527a151c985b9cd9995c88199959481c185e5b595b9d0819985a5b1959602a1b6044820152606490fd5b614a819150873d891161113a5761112c818361358b565b386149e0565b88513d8b823e3d90fd5b5060016148a0565b908060209392818452848401376000828201840152601f01601f1916010190565b818110614ac5575050565b60008155600101614aba565b6136779492606092825260208201528160408201520191614a99565b15614af457565b60405162461bcd60e51b815260206004820152601d60248201527f54696d656c6f636b3a2032346820686173206e6f7420656c61707365640000006044820152606490fd5b600360009182815582600182015582600282015501614b5881546134ae565b80614b6257505050565b82601f8211600114614b7357505055565b9091808252614b91601f60208420940160051c840160018501614aba565b5555565b600080601b5580601c5580601d55614bae601e546134ae565b80614bb7575050565b601f8111600114614bc85750601e55565b601e82527f50bb669a95c7b50b7e8a6f09454034b2b14cf2b85c730dca9a539ca82cb6e35090614c2090601f0160051c82017f50bb669a95c7b50b7e8a6f09454034b2b14cf2b85c730dca9a539ca82cb6e351614aba565b81601e5555565b15614c2e57565b60405162461bcd60e51b815260206004820152601b60248201527a139bc81c195b991a5b99c818da185b99d9481d1bc818d85b98d95b602a1b6044820152606490fd5b80600052600f602052604060002060058101548015614f8257600682015490811015614f4257614ca5906004830154613ca0565b9081614caf613cad565b10614eff57614cc8612054600954600184015490613ca0565b604051633fabe5a360e21b81529060a0826004817f00000000000000000000000000000000000000000000000000000000000000006001600160a01b03165afa918215611141576000805160206158e283398151915292600091600091614ecd575b50610e10612570614d419261256a600086136147e8565b600c548095614d4f8261410a565b600c55614e2460018060a01b03855416600186015461264a60076002890154938b60038b015460405192614d8284613503565b83526020830195865260408301968752606083019081526080830142815260a08401918c835260c0850193845260e085019860008a5261010086019860008a528d600052600d60205260406000209660018060a01b0390511660018060a01b03198854161787555160018701555160028601555160038501555160048401555160058301555160068201550192511515839060ff801983541691151516179055565b614e346001850154600954613ca0565b60095581600052601060205280604060002055614e54600685015461410a565b60068501558354614e6f9083906001600160a01b0316614870565b7fc03a2f316fabbec383211bfebb16e30dba98fdf23b6b6f9f080971e736d8e56d60206006860154604051908152a3614ec860018060a01b0383541694600184015492600360028601549501546040519586958661367a565b0390a3565b6125709250614d419150614ef1610e109160a03d811161122e5761121a818361358b565b509592505093925050614d2a565b60405162461bcd60e51b815260206004820152601b60248201527a546f6f206561726c7920746f206d696e742074686973207765656b60281b6044820152606490fd5b60405162461bcd60e51b8152602060048201526018602482015277105b1b081dd9595adcc8185b1c9958591e481b5a5b9d195960421b6044820152606490fd5b60405162461bcd60e51b815260206004820152601b60248201527a14dd589cd8dc9a5c1d1a5bdb88191bd95cc81b9bdd08195e1a5cdd602a1b6044820152606490fd5b92909160209060ff82541661538a57831561535057640ba43b7400841161531c576101f48110908115615310575b506152c05761500483600954613ca0565b60085410615280576040938451936348f54f0360e01b855260048501528184602481305afa60009481615251575b5061508357509091506374616c6560e01b6000937f50726963696e67206661696c6564202d206f7261636c65206d6179206265207381519361507385613570565b6024855284015282015290600090565b84516370a0823160e01b81526001600160a01b0391821660048201819052917f000000000000000000000000000000000000000000000000000000000000000016908381602481855afa928315615246578491600094615214575b506044885180948193636eb1769f60e11b835260048301523060248301525afa80156152095785916000916151d6575b509080921061519e571061514a5770526561647920746f20707572636861736560781b600194519161513f83613555565b601183528201529190565b711b1b08185c1c1c9bdd994a0a48199a5c9cdd60721b6000947f496e73756666696369656e74205553444320616c6c6f77616e6365202d20636181519361519085613570565b603285528401528201529190565b505078496e73756666696369656e7420555344432062616c616e636560381b60009451916151cb83613555565b601983528201529190565b91508382813d8311615202575b6151ed818361358b565b810103126151ff57505184908161510e565b80fd5b503d6151e3565b86513d6000823e3d90fd5b9182819592953d831161523f575b61522c818361358b565b810103126151ff575083905192386150de565b503d615222565b87513d6000823e3d90fd5b90948382813d8311615279575b615268818361358b565b810103126151ff5750519338615032565b503d61525e565b925090506000917a496e73756666696369656e7420706f6f6c206c697175696469747960281b604051916152b383613555565b601b835282015290600090565b925090506000917f5468726573686f6c64206d75737420626520352d32302520283530302d323030604051916152f583613570565b6025835282015264302062702960d81b604082015290600090565b6107d091501138614ff3565b50925090506000917a45786365656473206d617820636f76657261676520282435306b2960281b604051916152b383613555565b5092509050600091730436f766572616765206d757374206265203e20360641b6040519161537d83613555565b6014835282015290600090565b50925090506000916e10dbdb9d1c9858dd081c185d5cd959608a1b604051916153b283613555565b600f835282015290600090565b6001600160401b038111610c195760051b60200190565b80518210156136ea5760209160051b010190565b6008548015615414576009549061271091828102928184041490151715610c2f5761367791613c80565b50600090565b60085460095460009181811115615568576154359250613db6565b8015801561555a575b615557579060009060179283545b60155481108061554d575b80615544575b1561553b5761546b81613752565b5091600383019260ff84541661551357600193848201918254908482116154de57916154a96154ba94926154c0969460018060a01b0390541661556f565b805460ff1916871790555490613db6565b9461410a565b91810190818111610c2f576154d691865561410a565b92909261544c565b505050509294939150505b806154f357505050565b6145ff6000805160206158c28339815191529354604051938493846144b5565b509391506154d690855480821461552a575061410a565b6155339061410a565b865538610890565b509092916154e9565b5081151561545d565b5060148410615457565b50565b50601754601554111561543e565b5050615435565b6155c79160209160018060a01b0390818116600052600b84526040600020615598848254613db6565b90556155a683600854613db6565b600855600060405180968195829463a9059cbb60e01b845260048401614781565b03927f0000000000000000000000000000000000000000000000000000000000000000165af190811561114157600091615646575b501561560457565b60405162461bcd60e51b815260206004820152601a60248201527915da5d1a191c985dd85b081d1c985b9cd9995c8819985a5b195960321b6044820152606490fd5b61565e915060203d811161113a5761112c818361358b565b386155fc565b635ff32668811061568757635ff32667198101908111610c2f5762093a80900490565b60405162461bcd60e51b81526020600482015260156024820152744265666f7265207265666572656e6365206461746560581b6044820152606490fd5b62093a8090818102918183041490151715610c2f57635ff32668908101809111610c2f5790565b6156f4906156c4565b620441d7198101908111610c2f5790565b80151580615793575b156157545781808211156157445761572591613db6565b905b61271091828102928184041490151715610c2f5761367791613c80565b9061574e91613db6565b90615727565b60405162461bcd60e51b8152602060048201526017602482015276507269636573206d75737420626520706f73697469766560481b6044820152606490fd5b5081151561570e565b908215615802576157ac91613ca0565b6127109182820291808304841490151715610c2f576157ca91613c80565b61251c8082116157fa575b50614e206157e38280613dda565b049060011c8201809211610c2f5761367791613ca0565b9050386157d5565b50505061271090565b9193806158825750818310908115615877575b506158025761583392610e1093849184613db6565b106158025761584191613db6565b04609681029080820460961490151715610c2f57612710908101809111610c2f576161a89081811115615872575090565b905090565b90508210153861581e565b935050505090565b918082106158b9576158a86158a2826158ad94613db6565b84613dda565b613c80565b81811115615872575090565b50505060009056fe1ca00514b9bf4c911b52e6dabe932a971ba14609164abb78dd6edf0456bdbd3ee049cb63b527e187a8c1bf452e9d22ac8271172854814ebda07ab159a9647818a264697066735822122030a46db5d1a423e7bc6e0d4b9b9d23d60c14f3d103572cf098b98af5be06a11c64736f6c63430008140033",
  "linkReferences": {},
  "deployedLinkReferences": {}
}